{
    "type": "block-cert",
    "id": "urn:xid:6aa68cd8-4d4b-4506-82ea-9f481ff03325",
    "meta": "QmXVrXpfNCKFehTTCNB5npNSR3C5xiDQFCYERZ7FBRcHT5",
    "version": 0,
    "prev": "",
    "chain": "tBTC",
    "tx": {
        "txid": "7f89124c0fb1121ef13118ccd75a03bcaccc1d200e964df06c01a8841cfaddef",
        "hash": "6f790cada6080e79c9f5ada90c7e4fc13f182917ffd45b3c52d3c9fa2b4f8448",
        "version": 2,
        "size": 266,
        "vsize": 185,
        "weight": 737,
        "locktime": 0,
        "vin": [
          {
            "txid": "a9154b8f7047e95e98e74c5007f3a7ad1d310d00f7d1339868d41fc2e588c100",
            "vout": 0,
            "scriptSig": {
              "asm": "00141a7677b236baddb79923e84d056e14882057bc62",
              "hex": "1600141a7677b236baddb79923e84d056e14882057bc62"
            },
            "txinwitness": [
              "304402201cad2b26c725735e6778cf1ca9388fbf00ca3604a2986470ba0ba356490ad45d02204768c6d3cb049decd0e5d1f013908972c4cac436b19d5071ac71ab54e00c4cfe01",
              "02e1f1717a0974804e42cba89ea0e5e0abef0b773576c1fa3f1e7cc29c87ded787"
            ],
            "sequence": 4294967294
          }
        ],
        "vout": [
          {
            "value": 0.01007271,
            "n": 0,
            "scriptPubKey": {
              "asm": "OP_HASH160 6ce89556f29d13e040c456ecb662582a3c5ae669 OP_EQUAL",
              "hex": "a9146ce89556f29d13e040c456ecb662582a3c5ae66987",
              "reqSigs": 1,
              "type": "scripthash",
              "addresses": [
                "2N3B5bBCXNmnddusZiGb7G8eFPJ3ncutT4M"
              ]
            }
          },
          {
            "value": 0.00000000,
            "n": 1,
            "scriptPubKey": {
              "asm": "OP_RETURN 43494431017012208814c70f2b379f3d9100d83fe0dd39a7e59fdd7388ee347dd17492f3aa955fe0",
              "hex": "6a2843494431017012208814c70f2b379f3d9100d83fe0dd39a7e59fdd7388ee347dd17492f3aa955fe0",
              "type": "nulldata"
            }
          }
        ],
        "hex": "0200000000010100c188e5c21fd4689833d1f7000d311dada7f307504ce7985ee947708f4b15a900000000171600141a7677b236baddb79923e84d056e14882057bc62feffffff02a75e0f000000000017a9146ce89556f29d13e040c456ecb662582a3c5ae6698700000000000000002a6a2843494431017012208814c70f2b379f3d9100d83fe0dd39a7e59fdd7388ee347dd17492f3aa955fe00247304402201cad2b26c725735e6778cf1ca9388fbf00ca3604a2986470ba0ba356490ad45d02204768c6d3cb049decd0e5d1f013908972c4cac436b19d5071ac71ab54e00c4cfe012102e1f1717a0974804e42cba89ea0e5e0abef0b773576c1fa3f1e7cc29c87ded78700000000",
        "blockhash": "000000000000001e5cd93ea7aadb7596f818ff1d2d1b41d87357d0c644103c74",
        "confirmations": 1,
        "time": 1617397688,
        "blocktime": 1617397688
      }
}
