{
    "type": "block-cert",
    "xid": "0ac0a516-9d13-4e8c-a381-a998770529d5",
    "cid": "QmNs5LvJy8UjePvQcYeb5eWguRUa3otjcC6yrbbjxqtwRk",
    "version": 1,
    "prev": "QmbHX11s4LqH1YzDMs2T235a7ofCsKZDwHm6aaiirjsW4K",
    "chain": "tBTC",
    "time": "2021-04-16 19:19:44+00:00",
    "owner": {
        "id": "urn:chain:tBTC:1971684:36:0",
        "tx": {
            "txid": "d1e2f2b323223f369ad1dc05c9924fecd752cf3c8c7bceee9dcbba141b96b5c2",
            "vout": 0
        },
        "addresses": [
            "tb1qg3uxe4dgykp8ff0hc08vf727sfxfuzk0ryf0xf"
        ]
    },
    "tx": {
        "txid": "d1e2f2b323223f369ad1dc05c9924fecd752cf3c8c7bceee9dcbba141b96b5c2",
        "hash": "0ca5edc6391ac3517c5b811e4658d5a1449300e0a3b66295690ca2ca6e166953",
        "version": 2,
        "size": 415,
        "vsize": 253,
        "weight": 1012,
        "locktime": 0,
        "vin": [
            {
                "txid": "8c17588141797dd1d3405161e62e07e625ff9bdf1081b726b911c0e6274e1610",
                "vout": 0,
                "scriptSig": {
                    "asm": "",
                    "hex": ""
                },
                "txinwitness": [
                    "30440220348901bcc43f4202908dd86a80b11b3e187cdffe8eb9644fa584571a94333e5e02205c7c690481e718d4374bd2f09824f787abdd47c549f365b0181ddd28d72f6a8f01",
                    "027f161e3c84b33040f0409281d0a7a6660b074e6b950ba34207c2af412bc03efc"
                ],
                "sequence": 4294967295
            },
            {
                "txid": "96dcc1e7c2125492fd68dd19b77c9fa3c1b72e6c843b1504aae89b34d6b05cd9",
                "vout": 2,
                "scriptSig": {
                    "asm": "",
                    "hex": ""
                },
                "txinwitness": [
                    "30440220569d49ddd30799a3945c20c48572bebfce2539f1c830156d1987f7dfec9482ce022010be5eab85574de81653855c59824106c9866c02695a0270c801163645b4ca1f01",
                    "02e118b7cf65910698331caa612f7f3c96db813bd22e577c8d5d349052b4904dab"
                ],
                "sequence": 4294967294
            }
        ],
        "vout": [
            {
                "value": 1.111e-05,
                "n": 0,
                "scriptPubKey": {
                    "asm": "0 44786cd5a8258274a5f7c3cec4f95e824c9e0acf",
                    "hex": "001444786cd5a8258274a5f7c3cec4f95e824c9e0acf",
                    "reqSigs": 1,
                    "type": "witness_v0_keyhash",
                    "addresses": [
                        "tb1qg3uxe4dgykp8ff0hc08vf727sfxfuzk0ryf0xf"
                    ]
                }
            },
            {
                "value": 0.02998646,
                "n": 1,
                "scriptPubKey": {
                    "asm": "0 a8b30beb1e613ff69cb65e1b6e399e8ad94914c5",
                    "hex": "0014a8b30beb1e613ff69cb65e1b6e399e8ad94914c5",
                    "reqSigs": 1,
                    "type": "witness_v0_keyhash",
                    "addresses": [
                        "tb1q4zesh6c7vylld89ktcdkuwv73tv5j9x9jt6rqs"
                    ]
                }
            },
            {
                "value": 0.0,
                "n": 2,
                "scriptPubKey": {
                    "asm": "OP_RETURN 122007cb47616a5aff301c091cb679f2fd84e725c288ac17060fce48859ce3e7790b",
                    "hex": "6a22122007cb47616a5aff301c091cb679f2fd84e725c288ac17060fce48859ce3e7790b",
                    "type": "nulldata"
                }
            }
        ],
        "hex": "0200000000010210164e27e6c011b926b78110df9bff25e6072ee6615140d3d17d79418158178c0000000000ffffffffd95cb0d6349be8aa04153b846c2eb7c1a39f7cb719dd68fd925412c2e7c1dc960200000000feffffff03570400000000000016001444786cd5a8258274a5f7c3cec4f95e824c9e0acf76c12d0000000000160014a8b30beb1e613ff69cb65e1b6e399e8ad94914c50000000000000000246a22122007cb47616a5aff301c091cb679f2fd84e725c288ac17060fce48859ce3e7790b024730440220348901bcc43f4202908dd86a80b11b3e187cdffe8eb9644fa584571a94333e5e02205c7c690481e718d4374bd2f09824f787abdd47c549f365b0181ddd28d72f6a8f0121027f161e3c84b33040f0409281d0a7a6660b074e6b950ba34207c2af412bc03efc024730440220569d49ddd30799a3945c20c48572bebfce2539f1c830156d1987f7dfec9482ce022010be5eab85574de81653855c59824106c9866c02695a0270c801163645b4ca1f012102e118b7cf65910698331caa612f7f3c96db813bd22e577c8d5d349052b4904dab00000000",
        "blockhash": "00000000e8ea5d45d44c315366d4dce1b8e1da863e1801617f397aca9db88295",
        "confirmations": 1,
        "time": 1618600784,
        "blocktime": 1618600784
    }
}