{
    "type": "block-cert",
    "xid": "0ac0a516-9d13-4e8c-a381-a998770529d5",
    "cid": "QmbJ9fdme3Tvt5caHrquuZP4PAVHofW5dThznEyjtaQiT9",
    "version": 3,
    "prev": "QmZmMWNHq17JkfsN8qQZ1fpDtpiURJE4w3jGT7VNNmeRG3",
    "chain": "tBTC",
    "time": "2021-04-16 19:19:44+00:00",
    "owner": {
        "id": "urn:chain:tBTC:1971684:38:0",
        "tx": {
            "txid": "b3d9ec2e13003afe66210993d77c4708f91b9fc7b8f42ebdaff604632365dcab",
            "vout": 0
        },
        "addresses": [
            "tb1qjugy3j377yv966lm5gdtq2df2gnptknnkw0356"
        ]
    },
    "tx": {
        "txid": "b3d9ec2e13003afe66210993d77c4708f91b9fc7b8f42ebdaff604632365dcab",
        "hash": "19af3a39cd819d69c19aba3893449e043ea6a8b8b1705b6712aa0864121b99ef",
        "version": 2,
        "size": 415,
        "vsize": 253,
        "weight": 1012,
        "locktime": 0,
        "vin": [
            {
                "txid": "155bcfe462d8674f1bb1d43361bd8a64cd33decceb0055474818cf908f6cf9fe",
                "vout": 1,
                "scriptSig": {
                    "asm": "",
                    "hex": ""
                },
                "txinwitness": [
                    "3044022049bd4d1372affc280f2e10217e268e199094cf9aa45cf28b10d5f87150f38593022036defaea0438406f06198a413baab552f1de3d882ab3dd9e3a14b3ba086bb5e601",
                    "026814ede73dc896a717fab58fade5c2b2d250ad2cc4eaa198543784818a3f3bf5"
                ],
                "sequence": 4294967295
            },
            {
                "txid": "f7a662d15b21d5019a579b302cd4aef1eab2932124e5f5e470ceb03bdbd314b7",
                "vout": 1,
                "scriptSig": {
                    "asm": "",
                    "hex": ""
                },
                "txinwitness": [
                    "304402200e7ccb65777e86aab62a9aa282000d523f152da17715929787f0a2d5ecd5eab302200868ae9d7f58ef80a616660dd6e936d28f80d198952ef6916853cf3ec0d1df8501",
                    "025c6bd1d25c8a4f80489363e2c097a889f20671f7970cf6c26666766a5a42fc5a"
                ],
                "sequence": 4294967294
            }
        ],
        "vout": [
            {
                "value": 1.111e-05,
                "n": 0,
                "scriptPubKey": {
                    "asm": "0 971048ca3ef1185d6bfba21ab029a9522615da73",
                    "hex": "0014971048ca3ef1185d6bfba21ab029a9522615da73",
                    "reqSigs": 1,
                    "type": "witness_v0_keyhash",
                    "addresses": [
                        "tb1qjugy3j377yv966lm5gdtq2df2gnptknnkw0356"
                    ]
                }
            },
            {
                "value": 0.0,
                "n": 1,
                "scriptPubKey": {
                    "asm": "OP_RETURN 1220c083ee096a43b71d791170ba3493f11418e4ab0836d6597a1255f9b8a5472db8",
                    "hex": "6a221220c083ee096a43b71d791170ba3493f11418e4ab0836d6597a1255f9b8a5472db8",
                    "type": "nulldata"
                }
            },
            {
                "value": 0.11121702,
                "n": 2,
                "scriptPubKey": {
                    "asm": "0 ebde327d0eaf3c94c7a7845c13201512631028ff",
                    "hex": "0014ebde327d0eaf3c94c7a7845c13201512631028ff",
                    "reqSigs": 1,
                    "type": "witness_v0_keyhash",
                    "addresses": [
                        "tb1qa00rylgw4u7ff3a8s3wpxgq4zf33q28l354jey"
                    ]
                }
            }
        ],
        "hex": "02000000000102fef96c8f90cf1848475500ebccde33cd648abd6133d4b11b4f67d862e4cf5b150100000000ffffffffb714d3db3bb0ce70e4f5e5242193b2eaf1aed42c309b579a01d5215bd162a6f70100000000feffffff035704000000000000160014971048ca3ef1185d6bfba21ab029a9522615da730000000000000000246a221220c083ee096a43b71d791170ba3493f11418e4ab0836d6597a1255f9b8a5472db826b4a90000000000160014ebde327d0eaf3c94c7a7845c13201512631028ff02473044022049bd4d1372affc280f2e10217e268e199094cf9aa45cf28b10d5f87150f38593022036defaea0438406f06198a413baab552f1de3d882ab3dd9e3a14b3ba086bb5e60121026814ede73dc896a717fab58fade5c2b2d250ad2cc4eaa198543784818a3f3bf50247304402200e7ccb65777e86aab62a9aa282000d523f152da17715929787f0a2d5ecd5eab302200868ae9d7f58ef80a616660dd6e936d28f80d198952ef6916853cf3ec0d1df850121025c6bd1d25c8a4f80489363e2c097a889f20671f7970cf6c26666766a5a42fc5a00000000",
        "blockhash": "00000000e8ea5d45d44c315366d4dce1b8e1da863e1801617f397aca9db88295",
        "confirmations": 1,
        "time": 1618600784,
        "blocktime": 1618600784
    }
}