{
    "type": "block-cert",
    "id": "urn:xid:892c016c-11a9-4bf6-a52b-036f7a13de6c",
    "meta": "QmZh7p2zDZM1NYh9js9qFPxtvUQM7Mp4swH1YkZw1KNZCu",
    "version": 3,
    "prev": "QmZDCPuM1ujni3eBdZ9AXcAmcvrbrsaoxbTNFrujs5ZAYu",
    "chain": "tBTC",
    "time": "2021-04-04 03:08:08+00:00",
    "owner": {
        "id": "urn:chain:tBTC:1969845:10:1",
        "tx": {
            "txid": "66f282a95551ea5c61677fe1c90b7784851631bf41a9998d4906d5ef35906cf5",
            "vout": 1
        },
        "addresses": [
            "tb1qgys6gq3du768ehzr2psh3xmfrytpdpg7gdmmh9"
        ]
    },
    "tx": {
        "txid": "66f282a95551ea5c61677fe1c90b7784851631bf41a9998d4906d5ef35906cf5",
        "hash": "02e5f9965b043d04cc29ed869483c5e015b42be83425e0d9f7a7f6ff6fc2a641",
        "version": 2,
        "size": 467,
        "vsize": 305,
        "weight": 1220,
        "locktime": 0,
        "vin": [
            {
                "txid": "c65137d3a466201fb8b71bd8769e214fbed9b4ace79229c2947cd73771329e74",
                "vout": 0,
                "scriptSig": {
                    "asm": "00140f9c9aea11936b3cf05fabded253531a384697c0",
                    "hex": "1600140f9c9aea11936b3cf05fabded253531a384697c0"
                },
                "txinwitness": [
                    "304402201a26f56724600bb1abbac347d922502247543801daf1e91f35d4f1318192d1b402205d15b38a9405fd8a99fbbd17a8d3b93b2bf58996dc621e01bc93a95dac37f0c201",
                    "022130195ab661fb67d0ab44b8e0db9bca5d2469aaf129735054d3bb12d36ddcc4"
                ],
                "sequence": 4294967295
            },
            {
                "txid": "389f77a7b2ad580f7a625087e8e380d8c998e31f8ab0a91aa6768db3b28c42fb",
                "vout": 2,
                "scriptSig": {
                    "asm": "0014b25fddb175f574ecc84fb897628e8036fd49ae60",
                    "hex": "160014b25fddb175f574ecc84fb897628e8036fd49ae60"
                },
                "txinwitness": [
                    "304402202564b26dd091e1cd3bb9f1b8e6a9aca5a1841966fb1f6c706acb21b6b812991c02207935685cfa8dc702465a5efde45fa5f8129ecc224e838624b72317ce859ecef701",
                    "020915acadd716502ac9c387822314c3a1aec8b58005d99dc58c2d1194175a59c7"
                ],
                "sequence": 4294967294
            }
        ],
        "vout": [
            {
                "value": 0.01000217,
                "n": 0,
                "scriptPubKey": {
                    "asm": "0 5e0234d2f9190874b1d186242d218a76e6236479",
                    "hex": "00145e0234d2f9190874b1d186242d218a76e6236479",
                    "reqSigs": 1,
                    "type": "witness_v0_keyhash",
                    "addresses": [
                        "tb1qtcprf5heryy8fvw3scjz6gv2wmnzxeredcmqqy"
                    ]
                }
            },
            {
                "value": 1.234e-05,
                "n": 1,
                "scriptPubKey": {
                    "asm": "0 4121a4022de7b47cdc435061789b69191616851e",
                    "hex": "00144121a4022de7b47cdc435061789b69191616851e",
                    "reqSigs": 1,
                    "type": "witness_v0_keyhash",
                    "addresses": [
                        "tb1qgys6gq3du768ehzr2psh3xmfrytpdpg7gdmmh9"
                    ]
                }
            },
            {
                "value": 0.0,
                "n": 2,
                "scriptPubKey": {
                    "asm": "OP_RETURN 4349443101701220a8aed1232864a26a8014bf53aa91cf1b2c3ada81b8848cb94a6b4043e152ea1a",
                    "hex": "6a284349443101701220a8aed1232864a26a8014bf53aa91cf1b2c3ada81b8848cb94a6b4043e152ea1a",
                    "type": "nulldata"
                }
            }
        ],
        "hex": "02000000000102749e327137d77c94c22992e7acb4d9be4f219e76d81bb7b81f2066a4d33751c600000000171600140f9c9aea11936b3cf05fabded253531a384697c0fffffffffb428cb2b38d76a61aa9b08a1fe398c9d880e3e88750627a0f58adb2a7779f380200000017160014b25fddb175f574ecc84fb897628e8036fd49ae60feffffff0319430f00000000001600145e0234d2f9190874b1d186242d218a76e6236479d2040000000000001600144121a4022de7b47cdc435061789b69191616851e00000000000000002a6a284349443101701220a8aed1232864a26a8014bf53aa91cf1b2c3ada81b8848cb94a6b4043e152ea1a0247304402201a26f56724600bb1abbac347d922502247543801daf1e91f35d4f1318192d1b402205d15b38a9405fd8a99fbbd17a8d3b93b2bf58996dc621e01bc93a95dac37f0c20121022130195ab661fb67d0ab44b8e0db9bca5d2469aaf129735054d3bb12d36ddcc40247304402202564b26dd091e1cd3bb9f1b8e6a9aca5a1841966fb1f6c706acb21b6b812991c02207935685cfa8dc702465a5efde45fa5f8129ecc224e838624b72317ce859ecef70121020915acadd716502ac9c387822314c3a1aec8b58005d99dc58c2d1194175a59c700000000",
        "blockhash": "00000000000000041df731b82743f65f67d0a544c9bed32183385876ec528f7d",
        "confirmations": 335,
        "time": 1617505688,
        "blocktime": 1617505688
    }
}