{
    "type": "block-cert",
    "id": "urn:xid:abc32c80-89e5-49f7-82d9-e9e3aebf2dc2",
    "meta": "QmQi7aQyrUxvmTDQk9yZxnnEmHDzRfnzEBVMrkMhmjdhHn",
    "version": 0,
    "prev": "",
    "chain": "tBTC",
    "time": "2021-04-03 22:53:41+00:00",
    "owner": {
        "id": "urn:chain:tBTC:1969816:18:1",
        "tx": {
            "txid": "5a34b03ce45e5b593cc3382ce03dc1ed51d3078bd2b8282eebf5636f4beed5a0",
            "vout": 1
        },
        "addresses": [
            "2N9PSDv15Y3GB4JN5zSYoNuYSrztEhJQSPh"
        ]
    },
    "tx": {
        "txid": "5a34b03ce45e5b593cc3382ce03dc1ed51d3078bd2b8282eebf5636f4beed5a0",
        "hash": "071b4b19a55afcf4eec92a1aa2e7b13f3610e1e200b3a073786133e354657fcc",
        "version": 2,
        "size": 298,
        "vsize": 217,
        "weight": 865,
        "locktime": 0,
        "vin": [
            {
                "txid": "e6f62105e91252ff659f4b58aea6fe6889eea8366ebb0572dc38580dfde81465",
                "vout": 0,
                "scriptSig": {
                    "asm": "0014be8bbff9da2a933686bb15c153554a52403c11e1",
                    "hex": "160014be8bbff9da2a933686bb15c153554a52403c11e1"
                },
                "txinwitness": [
                    "3044022069b482636f0e59f15b960f660d68bf1852715b35e205bbf5557d3d29c40d54ee02201a54856dd65b55e5632b364dfe4682797727c6cbf7d70daf3d37bf8959b557b501",
                    "03c01d66e34f72994f73eff68a74935a4910b69b199a435b0f14f6831e9e4c76bc"
                ],
                "sequence": 4294967294
            }
        ],
        "vout": [
            {
                "value": 0.01001984,
                "n": 0,
                "scriptPubKey": {
                    "asm": "OP_HASH160 30cc0d9097442406c17099b45138e31842e5b30c OP_EQUAL",
                    "hex": "a91430cc0d9097442406c17099b45138e31842e5b30c87",
                    "reqSigs": 1,
                    "type": "scripthash",
                    "addresses": [
                        "2MwhEsLnYNH4kkZV9hdv5hFVTaPmDWTbDcj"
                    ]
                }
            },
            {
                "value": 1.234e-05,
                "n": 1,
                "scriptPubKey": {
                    "asm": "OP_HASH160 b10f8db2b6e8b2662ae5d1236137cee55a453307 OP_EQUAL",
                    "hex": "a914b10f8db2b6e8b2662ae5d1236137cee55a45330787",
                    "reqSigs": 1,
                    "type": "scripthash",
                    "addresses": [
                        "2N9PSDv15Y3GB4JN5zSYoNuYSrztEhJQSPh"
                    ]
                }
            },
            {
                "value": 0.0,
                "n": 2,
                "scriptPubKey": {
                    "asm": "OP_RETURN 43494431017012202336f32b3f9f622274200ebe67a0144027026d01a3ea9cc4c37bb6ce39c23c2d",
                    "hex": "6a2843494431017012202336f32b3f9f622274200ebe67a0144027026d01a3ea9cc4c37bb6ce39c23c2d",
                    "type": "nulldata"
                }
            }
        ],
        "hex": "020000000001016514e8fd0d5838dc7205bb6e36a8ee8968fea6ae584b9f65ff5212e90521f6e60000000017160014be8bbff9da2a933686bb15c153554a52403c11e1feffffff03004a0f000000000017a91430cc0d9097442406c17099b45138e31842e5b30c87d20400000000000017a914b10f8db2b6e8b2662ae5d1236137cee55a4533078700000000000000002a6a2843494431017012202336f32b3f9f622274200ebe67a0144027026d01a3ea9cc4c37bb6ce39c23c2d02473044022069b482636f0e59f15b960f660d68bf1852715b35e205bbf5557d3d29c40d54ee02201a54856dd65b55e5632b364dfe4682797727c6cbf7d70daf3d37bf8959b557b5012103c01d66e34f72994f73eff68a74935a4910b69b199a435b0f14f6831e9e4c76bc00000000",
        "blockhash": "0000000000000004f0e71345d2a891426fb1c240d9a470a3810eaab03ef3f000",
        "confirmations": 14,
        "time": 1617490421,
        "blocktime": 1617490421
    }
}