{
    "type": "block-cert",
    "xid": "0ac0a516-9d13-4e8c-a381-a998770529d5",
    "cid": "QmRw2XZqwatiprs7VNFno3y8Z18TnXyjW78ttuvR9mPx38",
    "version": 2,
    "prev": "QmXgNeVr6xF3eATypZtMHJrAdLg8fCqdTh9ACB4Fe5psrC",
    "chain": "tBTC",
    "time": "2021-04-16 19:19:44+00:00",
    "owner": {
        "id": "urn:chain:tBTC:1971684:37:1",
        "tx": {
            "txid": "155bcfe462d8674f1bb1d43361bd8a64cd33decceb0055474818cf908f6cf9fe",
            "vout": 1
        },
        "addresses": [
            "tb1qw404rvykac8kdvnjr0v2qtmjepr9sfaa2atwva"
        ]
    },
    "tx": {
        "txid": "155bcfe462d8674f1bb1d43361bd8a64cd33decceb0055474818cf908f6cf9fe",
        "hash": "78c8391e5c1defcd3f6a68a6db56e752f335fe68c549591923ce2fa2b1b0685a",
        "version": 2,
        "size": 415,
        "vsize": 253,
        "weight": 1012,
        "locktime": 0,
        "vin": [
            {
                "txid": "d1e2f2b323223f369ad1dc05c9924fecd752cf3c8c7bceee9dcbba141b96b5c2",
                "vout": 0,
                "scriptSig": {
                    "asm": "",
                    "hex": ""
                },
                "txinwitness": [
                    "3044022030c47b128916d7bb53617537b93b400f3d1e5ef0cd7fcfffd73654cc4ea60a08022059757ecb745fe5948e77e750a7ad04f434b28e31391651870ede50a98a621c1f01",
                    "0252cacd12e970eac612001047a8f0d6b882b88aa3ac0593448f634002ae770c6d"
                ],
                "sequence": 4294967295
            },
            {
                "txid": "5f86cefc3388f8670073d42bdbb2cd8d77a6717222f577e0d26018bc4d57c931",
                "vout": 2,
                "scriptSig": {
                    "asm": "",
                    "hex": ""
                },
                "txinwitness": [
                    "3044022025e3524ed00107456473d209094fa73998c52e4f0b435109c5d4047782800160022049c80961b9482fcb5f81319c12c0b5a8d89c6579434874146575387ed99432a601",
                    "020eeb67960da2d13d052d6ee634efb05631c1177b6c2cfe83eb4825b4ed10ba53"
                ],
                "sequence": 4294967294
            }
        ],
        "vout": [
            {
                "value": 0.03999158,
                "n": 0,
                "scriptPubKey": {
                    "asm": "0 d78035fc4bbe9cf18f0b8649c445a1a904453fb9",
                    "hex": "0014d78035fc4bbe9cf18f0b8649c445a1a904453fb9",
                    "reqSigs": 1,
                    "type": "witness_v0_keyhash",
                    "addresses": [
                        "tb1q67qrtlzth6w0rrctseyug3dp4yzy20aejts762"
                    ]
                }
            },
            {
                "value": 1.111e-05,
                "n": 1,
                "scriptPubKey": {
                    "asm": "0 755f51b096ee0f66b2721bd8a02f72c8465827bd",
                    "hex": "0014755f51b096ee0f66b2721bd8a02f72c8465827bd",
                    "reqSigs": 1,
                    "type": "witness_v0_keyhash",
                    "addresses": [
                        "tb1qw404rvykac8kdvnjr0v2qtmjepr9sfaa2atwva"
                    ]
                }
            },
            {
                "value": 0.0,
                "n": 2,
                "scriptPubKey": {
                    "asm": "OP_RETURN 122035617a71d6681b14f219c6fea1ba77a8fdbdb8d424e420ce3d5924e81fab66e7",
                    "hex": "6a22122035617a71d6681b14f219c6fea1ba77a8fdbdb8d424e420ce3d5924e81fab66e7",
                    "type": "nulldata"
                }
            }
        ],
        "hex": "02000000000102c2b5961b14bacb9deece7b8c3ccf52d7ec4f92c905dcd19a363f2223b3f2e2d10000000000ffffffff31c9574dbc1860d2e077f5227271a6778dcdb2db2bd4730067f88833fcce865f0200000000feffffff03b6053d0000000000160014d78035fc4bbe9cf18f0b8649c445a1a904453fb95704000000000000160014755f51b096ee0f66b2721bd8a02f72c8465827bd0000000000000000246a22122035617a71d6681b14f219c6fea1ba77a8fdbdb8d424e420ce3d5924e81fab66e702473044022030c47b128916d7bb53617537b93b400f3d1e5ef0cd7fcfffd73654cc4ea60a08022059757ecb745fe5948e77e750a7ad04f434b28e31391651870ede50a98a621c1f01210252cacd12e970eac612001047a8f0d6b882b88aa3ac0593448f634002ae770c6d02473044022025e3524ed00107456473d209094fa73998c52e4f0b435109c5d4047782800160022049c80961b9482fcb5f81319c12c0b5a8d89c6579434874146575387ed99432a60121020eeb67960da2d13d052d6ee634efb05631c1177b6c2cfe83eb4825b4ed10ba5300000000",
        "blockhash": "00000000e8ea5d45d44c315366d4dce1b8e1da863e1801617f397aca9db88295",
        "confirmations": 1,
        "time": 1618600784,
        "blocktime": 1618600784
    }
}