{
    "type": "block-cert",
    "id": "urn:xid:d982419c-e5c9-4451-91c2-1d38942c91a9",
    "meta": "QmPwwSpTbiPH6pP7LCPey8ecaRMF8q7RK5P7UXuBVHXoUK",
    "version": 2,
    "prev": "QmRt2dHikb6LGoA1PNn6pUSrM3xNcmyQ1afj3zNeNTuY1E",
    "chain": "tBTC",
    "time": "2021-04-05 00:29:30+00:00",
    "owner": {
        "id": "urn:chain:tBTC:1969990:31:0",
        "tx": {
            "txid": "f7a662d15b21d5019a579b302cd4aef1eab2932124e5f5e470ceb03bdbd314b7",
            "vout": 0
        },
        "addresses": [
            "tb1qy6vjr0kkxzaw7v5trjeazkl6du23x2clp2q4ta"
        ]
    },
    "tx": {
        "txid": "f7a662d15b21d5019a579b302cd4aef1eab2932124e5f5e470ceb03bdbd314b7",
        "hash": "c4d2a60d4d54d4b783c4df8feb90d26bc9a8d11c449bd10d0091fd416adca776",
        "version": 2,
        "size": 444,
        "vsize": 282,
        "weight": 1128,
        "locktime": 0,
        "vin": [
            {
                "txid": "5f86cefc3388f8670073d42bdbb2cd8d77a6717222f577e0d26018bc4d57c931",
                "vout": 0,
                "scriptSig": {
                    "asm": "",
                    "hex": ""
                },
                "txinwitness": [
                    "30440220089defff8db6129d221b0c0c22cbdfffe8027f4f8096a284ada6f1a84083e19102201880d3a1be34ed1194cffabc9961ebc6d9e47c38df4124d00bcb6be56ceb564e01",
                    "039d95a568b01bf9ba0a92da634f2ea3c0a75b69b66fbb48d6c86fc68cce03a28d"
                ],
                "sequence": 4294967295
            },
            {
                "txid": "a3b8cbdf80db57964e2099be1ce8fd6074b069541fc509b64dbf66e8c95ed95d",
                "vout": 0,
                "scriptSig": {
                    "asm": "0014e089cd970fc48fce43e5de7729c553da8ae6ec17",
                    "hex": "160014e089cd970fc48fce43e5de7729c553da8ae6ec17"
                },
                "txinwitness": [
                    "304402207136b04b0a30e53dc43e9d6d423cb3db4cde8af1e9be0ee12d943b000a06d8e4022066a271b10d01cf27a392e6d8fdd7ed9b27aef8bd98776491131bcff465c60ba601",
                    "03116e1a41a1298d20fc442ae17c5ba68a1e3792488e137a6afab79985d43bbc6d"
                ],
                "sequence": 4294967294
            }
        ],
        "vout": [
            {
                "value": 1.234e-05,
                "n": 0,
                "scriptPubKey": {
                    "asm": "0 269921bed630baef328b1cb3d15bfa6f15132b1f",
                    "hex": "0014269921bed630baef328b1cb3d15bfa6f15132b1f",
                    "reqSigs": 1,
                    "type": "witness_v0_keyhash",
                    "addresses": [
                        "tb1qy6vjr0kkxzaw7v5trjeazkl6du23x2clp2q4ta"
                    ]
                }
            },
            {
                "value": 0.11121955,
                "n": 1,
                "scriptPubKey": {
                    "asm": "0 a2161c461a282c50cb1a07fe7f35b8c402217504",
                    "hex": "0014a2161c461a282c50cb1a07fe7f35b8c402217504",
                    "reqSigs": 1,
                    "type": "witness_v0_keyhash",
                    "addresses": [
                        "tb1q5gtpc3s69qk9pjc6qll87ddccspzzagyzrpxxm"
                    ]
                }
            },
            {
                "value": 0.0,
                "n": 2,
                "scriptPubKey": {
                    "asm": "OP_RETURN 434944310170122017e5f06dd1fac47989143bd45bd319bb0bf15c9bfac13c4bd0e4b6890a940658",
                    "hex": "6a28434944310170122017e5f06dd1fac47989143bd45bd319bb0bf15c9bfac13c4bd0e4b6890a940658",
                    "type": "nulldata"
                }
            }
        ],
        "hex": "0200000000010231c9574dbc1860d2e077f5227271a6778dcdb2db2bd4730067f88833fcce865f0000000000ffffffff5dd95ec9e866bf4db609c51f5469b07460fde81cbe99204e9657db80dfcbb8a30000000017160014e089cd970fc48fce43e5de7729c553da8ae6ec17feffffff03d204000000000000160014269921bed630baef328b1cb3d15bfa6f15132b1f23b5a90000000000160014a2161c461a282c50cb1a07fe7f35b8c40221750400000000000000002a6a28434944310170122017e5f06dd1fac47989143bd45bd319bb0bf15c9bfac13c4bd0e4b6890a940658024730440220089defff8db6129d221b0c0c22cbdfffe8027f4f8096a284ada6f1a84083e19102201880d3a1be34ed1194cffabc9961ebc6d9e47c38df4124d00bcb6be56ceb564e0121039d95a568b01bf9ba0a92da634f2ea3c0a75b69b66fbb48d6c86fc68cce03a28d0247304402207136b04b0a30e53dc43e9d6d423cb3db4cde8af1e9be0ee12d943b000a06d8e4022066a271b10d01cf27a392e6d8fdd7ed9b27aef8bd98776491131bcff465c60ba6012103116e1a41a1298d20fc442ae17c5ba68a1e3792488e137a6afab79985d43bbc6d00000000",
        "blockhash": "000000000000000c98f75b90015693ff3735655945fa95c3ac48feb381121e6a",
        "confirmations": 2,
        "time": 1617582570,
        "blocktime": 1617582570
    }
}