{
    "type": "block-cert",
    "xid": "caaceed4-3a27-4956-b365-90904f8661dd",
    "cid": "QmSWCMGhWLbLEWKZst3x1f5QrqiPfbMsu1hKszadDrKcSt",
    "version": 1,
    "prev": "QmXntRyVA4HxgArFjPsvqivHxbqy4rryYFcA6QXLhJb1qA",
    "chain": "tBTC",
    "time": "2021-04-16 15:37:38+00:00",
    "owner": {
        "id": "urn:chain:tBTC:1971668:63:0",
        "tx": {
            "txid": "96dcc1e7c2125492fd68dd19b77c9fa3c1b72e6c843b1504aae89b34d6b05cd9",
            "vout": 0
        },
        "addresses": [
            "tb1qa0ug76pes33nhuk83plutt9jkwxt4ky233k3uk"
        ]
    },
    "tx": {
        "txid": "96dcc1e7c2125492fd68dd19b77c9fa3c1b72e6c843b1504aae89b34d6b05cd9",
        "hash": "98101c7abcbfe52ddd7fc03f23cf3fb608e5966265683dd72e148ee77b5aeb5d",
        "version": 2,
        "size": 415,
        "vsize": 253,
        "weight": 1012,
        "locktime": 0,
        "vin": [
            {
                "txid": "169d0194b3e3c3994bbbfa22e98ae7de0792b5642d965bfa9f8050127e26617f",
                "vout": 0,
                "scriptSig": {
                    "asm": "",
                    "hex": ""
                },
                "txinwitness": [
                    "304402206f5dad8011be7a68d112988b40717f65b8aae88f52d8d025c6eb7e9724cf76fd0220496d5faa308fcf453b591a1fef4fc224f8e274e8e730b9f256a1033f27ba328501",
                    "02e1ff9220a2b200334690f6b9e7a4854b953324f65f3994b2bb6277e4af97452f"
                ],
                "sequence": 4294967295
            },
            {
                "txid": "93d37cfa60b3ce1687b0f1822d70955149e5a625cb6dbb72f63b2de930046b41",
                "vout": 2,
                "scriptSig": {
                    "asm": "",
                    "hex": ""
                },
                "txinwitness": [
                    "3044022058ad554f1a630b0275b69e1354d3a005a76f4f99aec8088a240fdb9208cc6c030220286ba166e4aa968f685b439b573519d2ed1ea18817d2607e053faf4ec46142e801",
                    "027b39844e1911e489e061eb72ef1458c0a1a672dac8c4c206c95b06ef29b62886"
                ],
                "sequence": 4294967294
            }
        ],
        "vout": [
            {
                "value": 1.111e-05,
                "n": 0,
                "scriptPubKey": {
                    "asm": "0 ebf88f683984633bf2c7887fc5acb2b38cbad88a",
                    "hex": "0014ebf88f683984633bf2c7887fc5acb2b38cbad88a",
                    "reqSigs": 1,
                    "type": "witness_v0_keyhash",
                    "addresses": [
                        "tb1qa0ug76pes33nhuk83plutt9jkwxt4ky233k3uk"
                    ]
                }
            },
            {
                "value": 0.0,
                "n": 1,
                "scriptPubKey": {
                    "asm": "OP_RETURN 12203de0c056b862755d0397b2db274fc37682c3456185dcc047ee2f20812100dca9",
                    "hex": "6a2212203de0c056b862755d0397b2db274fc37682c3456185dcc047ee2f20812100dca9",
                    "type": "nulldata"
                }
            },
            {
                "value": 0.02998899,
                "n": 2,
                "scriptPubKey": {
                    "asm": "0 b65cf0431ea5e2adc5f25dbf143338b7ff9794e7",
                    "hex": "0014b65cf0431ea5e2adc5f25dbf143338b7ff9794e7",
                    "reqSigs": 1,
                    "type": "witness_v0_keyhash",
                    "addresses": [
                        "tb1qkew0qsc75h32m30jtkl3gvecklle0988lgk6r0"
                    ]
                }
            }
        ],
        "hex": "020000000001027f61267e1250809ffa5b962d64b59207dee78ae922fabb4b99c3e3b394019d160000000000ffffffff416b0430e92d3bf672bb6dcb25a6e5495195702d82f1b08716ceb360fa7cd3930200000000feffffff035704000000000000160014ebf88f683984633bf2c7887fc5acb2b38cbad88a0000000000000000246a2212203de0c056b862755d0397b2db274fc37682c3456185dcc047ee2f20812100dca973c22d0000000000160014b65cf0431ea5e2adc5f25dbf143338b7ff9794e70247304402206f5dad8011be7a68d112988b40717f65b8aae88f52d8d025c6eb7e9724cf76fd0220496d5faa308fcf453b591a1fef4fc224f8e274e8e730b9f256a1033f27ba3285012102e1ff9220a2b200334690f6b9e7a4854b953324f65f3994b2bb6277e4af97452f02473044022058ad554f1a630b0275b69e1354d3a005a76f4f99aec8088a240fdb9208cc6c030220286ba166e4aa968f685b439b573519d2ed1ea18817d2607e053faf4ec46142e80121027b39844e1911e489e061eb72ef1458c0a1a672dac8c4c206c95b06ef29b6288600000000",
        "blockhash": "0000000000024da8405f973f12997c494b2aba5137350c32955cf9d27a8e5480",
        "confirmations": 10,
        "time": 1618587458,
        "blocktime": 1618587458
    }
}