{
    "type": "block-cert",
    "id": "urn:xid:abc32c80-89e5-49f7-82d9-e9e3aebf2dc2",
    "meta": "QmPMdaP7eCwBKbfMqhC8sPx3psoPekb7TBik4sfUe2V3kc",
    "version": 1,
    "prev": "QmXx84BcH4b56VXJBUKj8LMvGw3CkhJMRCXTFoRG3j8Tpi",
    "chain": "tBTC",
    "time": "2021-04-04 00:24:17+00:00",
    "owner": {
        "id": "urn:chain:tBTC:1969830:34:0",
        "tx": {
            "txid": "9de301a0279cfcdd4872f1fee78994ccf18063fababcc45be06222f50b4873c4",
            "vout": 0
        },
        "addresses": [
            "2NF86X99E2BcLJNWwRbNYvqFhCKNf26dnDh"
        ]
    },
    "tx": {
        "txid": "9de301a0279cfcdd4872f1fee78994ccf18063fababcc45be06222f50b4873c4",
        "hash": "7475b92a65e02a4a170cc918b51d7aa74502f384d234d0d7911d51fa34bc1da4",
        "version": 2,
        "size": 469,
        "vsize": 307,
        "weight": 1228,
        "locktime": 0,
        "vin": [
            {
                "txid": "5a34b03ce45e5b593cc3382ce03dc1ed51d3078bd2b8282eebf5636f4beed5a0",
                "vout": 1,
                "scriptSig": {
                    "asm": "00140af06513e804fb8db280433a9e823cef778d712e",
                    "hex": "1600140af06513e804fb8db280433a9e823cef778d712e"
                },
                "txinwitness": [
                    "30440220702ca6b4a4f3fa3e2e235b5edf5abf9a1a032038472b138a8d32c214eabb2380022073d395e4b352ce74f0cd7a834da38c047e4cc7ae42609059ab13efe34687bbb601",
                    "022b75fce1c3b8af9ccc71111e85bb173b49e14449786547d03817709870524815"
                ],
                "sequence": 4294967295
            },
            {
                "txid": "5a34b03ce45e5b593cc3382ce03dc1ed51d3078bd2b8282eebf5636f4beed5a0",
                "vout": 0,
                "scriptSig": {
                    "asm": "0014a262e6caf76a2b3ab51314bebea0d1e25607a414",
                    "hex": "160014a262e6caf76a2b3ab51314bebea0d1e25607a414"
                },
                "txinwitness": [
                    "304402207abc83cf4e85cee7a9d28922adaf82f511d03aa1d369b88a938d575cad66872a02202c3d26ced6adbbf17965153ea1ebd9295158c08dcea90a892af6fea15b0f151f01",
                    "03b925031afd17108cc6b177ef5a3200be69ad623606aec11beee104d459af318c"
                ],
                "sequence": 4294967294
            }
        ],
        "vout": [
            {
                "value": 1.234e-05,
                "n": 0,
                "scriptPubKey": {
                    "asm": "OP_HASH160 eff99f1e4ad2bf003a45ca966cccbfe4b6da0f07 OP_EQUAL",
                    "hex": "a914eff99f1e4ad2bf003a45ca966cccbfe4b6da0f0787",
                    "reqSigs": 1,
                    "type": "scripthash",
                    "addresses": [
                        "2NF86X99E2BcLJNWwRbNYvqFhCKNf26dnDh"
                    ]
                }
            },
            {
                "value": 0.01001677,
                "n": 1,
                "scriptPubKey": {
                    "asm": "OP_HASH160 ef3aa7fb7647a59400c06b4023d46b22080b405b OP_EQUAL",
                    "hex": "a914ef3aa7fb7647a59400c06b4023d46b22080b405b87",
                    "reqSigs": 1,
                    "type": "scripthash",
                    "addresses": [
                        "2NF49kdk58djZ91JjKTZYbRwUtqcetpAJqv"
                    ]
                }
            },
            {
                "value": 0.0,
                "n": 2,
                "scriptPubKey": {
                    "asm": "OP_RETURN 43494431017012200f1bfc87839c8c58f06dbe83276a8395cd6c2a786c55bf32243c995cb6717979",
                    "hex": "6a2843494431017012200f1bfc87839c8c58f06dbe83276a8395cd6c2a786c55bf32243c995cb6717979",
                    "type": "nulldata"
                }
            }
        ],
        "hex": "02000000000102a0d5ee4b6f63f5eb2e28b8d28b07d351edc13de02c38c33c595b5ee43cb0345a01000000171600140af06513e804fb8db280433a9e823cef778d712effffffffa0d5ee4b6f63f5eb2e28b8d28b07d351edc13de02c38c33c595b5ee43cb0345a0000000017160014a262e6caf76a2b3ab51314bebea0d1e25607a414feffffff03d20400000000000017a914eff99f1e4ad2bf003a45ca966cccbfe4b6da0f0787cd480f000000000017a914ef3aa7fb7647a59400c06b4023d46b22080b405b8700000000000000002a6a2843494431017012200f1bfc87839c8c58f06dbe83276a8395cd6c2a786c55bf32243c995cb6717979024730440220702ca6b4a4f3fa3e2e235b5edf5abf9a1a032038472b138a8d32c214eabb2380022073d395e4b352ce74f0cd7a834da38c047e4cc7ae42609059ab13efe34687bbb60121022b75fce1c3b8af9ccc71111e85bb173b49e14449786547d038177098705248150247304402207abc83cf4e85cee7a9d28922adaf82f511d03aa1d369b88a938d575cad66872a02202c3d26ced6adbbf17965153ea1ebd9295158c08dcea90a892af6fea15b0f151f012103b925031afd17108cc6b177ef5a3200be69ad623606aec11beee104d459af318c00000000",
        "blockhash": "0000000000000005050b4f2fc2184e7ecb2271a23d6b3ed2494418c012407ce1",
        "confirmations": 2,
        "time": 1617495857,
        "blocktime": 1617495857
    }
}