{
    "type": "block-cert",
    "id": "urn:xid:abc32c80-89e5-49f7-82d9-e9e3aebf2dc2",
    "meta": "QmcDLGtyasGcb5eETheL8W94KBrEEn48EEWFN3gNhwY1D1",
    "version": 2,
    "prev": "QmWu1WUrBbR9ULL6XSYU4TwZM4Um23TsTxAXwgJTyJV18r",
    "chain": "tBTC",
    "time": "2021-04-04 00:53:34+00:00",
    "owner": {
        "id": "urn:chain:tBTC:1969832:45:0",
        "tx": {
            "txid": "5613f0120c2969de186bde8fe50563cec21e1614ecb8517037d1354265a9e48b",
            "vout": 0
        },
        "addresses": [
            "2N9UnJPXhMEFpz7oMJqkJaKaTAgST18ZbFs"
        ]
    },
    "tx": {
        "txid": "5613f0120c2969de186bde8fe50563cec21e1614ecb8517037d1354265a9e48b",
        "hash": "cf5fa593dd8b7ed00ea58a0ad41110da9f834b45951379229ba2dca36ad5efa4",
        "version": 2,
        "size": 469,
        "vsize": 307,
        "weight": 1228,
        "locktime": 0,
        "vin": [
            {
                "txid": "9de301a0279cfcdd4872f1fee78994ccf18063fababcc45be06222f50b4873c4",
                "vout": 0,
                "scriptSig": {
                    "asm": "0014b4186c1f1df3258f614bb93986faf9c4d6d576f3",
                    "hex": "160014b4186c1f1df3258f614bb93986faf9c4d6d576f3"
                },
                "txinwitness": [
                    "3044022079c72b1d9f5336002ce19162660ec241d1df3c9d0269efb0c3f7921c44b3388a02207d13749e9539d59df843cd8757f341407372778f0af80c96742ade0d3f91ed4101",
                    "023fa71bb422d27cfc0cd6e43440047b124121f5e4a515f8390a5853236a05e81b"
                ],
                "sequence": 4294967295
            },
            {
                "txid": "9de301a0279cfcdd4872f1fee78994ccf18063fababcc45be06222f50b4873c4",
                "vout": 1,
                "scriptSig": {
                    "asm": "00148567819b02333bba54fa69825a27c2a18cd107dd",
                    "hex": "1600148567819b02333bba54fa69825a27c2a18cd107dd"
                },
                "txinwitness": [
                    "3044022029a52186c958333a2d5d1ffb932c9c59a0a62e275c8dab0e5943d08e460c6b6c02206e3f1c71d2ebb0f81b67c4271d98c5574658b8904a779712fe0e93187e60530101",
                    "02c95274a6defa0abcfd11c260e59c9091092e53763485f9321a014b8500e72c9c"
                ],
                "sequence": 4294967294
            }
        ],
        "vout": [
            {
                "value": 1.234e-05,
                "n": 0,
                "scriptPubKey": {
                    "asm": "OP_HASH160 b21264939312164901d2ec4a45124eadfe6d1ff5 OP_EQUAL",
                    "hex": "a914b21264939312164901d2ec4a45124eadfe6d1ff587",
                    "reqSigs": 1,
                    "type": "scripthash",
                    "addresses": [
                        "2N9UnJPXhMEFpz7oMJqkJaKaTAgST18ZbFs"
                    ]
                }
            },
            {
                "value": 0.0,
                "n": 1,
                "scriptPubKey": {
                    "asm": "OP_RETURN 4349443101701220ce23b509c539d265587fb977f8946c220f65abecd7fe6e920d81aeb2dc2140b0",
                    "hex": "6a284349443101701220ce23b509c539d265587fb977f8946c220f65abecd7fe6e920d81aeb2dc2140b0",
                    "type": "nulldata"
                }
            },
            {
                "value": 0.0100137,
                "n": 2,
                "scriptPubKey": {
                    "asm": "OP_HASH160 58315f7b8f10f45721321ba1bd7956265578f037 OP_EQUAL",
                    "hex": "a91458315f7b8f10f45721321ba1bd7956265578f03787",
                    "reqSigs": 1,
                    "type": "scripthash",
                    "addresses": [
                        "2N1HYbfDgRRC1Cp7zQpThB55ZQeLGufJ79s"
                    ]
                }
            }
        ],
        "hex": "02000000000102c473480bf52262e05bc4bcbafa6380f1cc9489e7fef17248ddfc9c27a001e39d0000000017160014b4186c1f1df3258f614bb93986faf9c4d6d576f3ffffffffc473480bf52262e05bc4bcbafa6380f1cc9489e7fef17248ddfc9c27a001e39d01000000171600148567819b02333bba54fa69825a27c2a18cd107ddfeffffff03d20400000000000017a914b21264939312164901d2ec4a45124eadfe6d1ff58700000000000000002a6a284349443101701220ce23b509c539d265587fb977f8946c220f65abecd7fe6e920d81aeb2dc2140b09a470f000000000017a91458315f7b8f10f45721321ba1bd7956265578f0378702473044022079c72b1d9f5336002ce19162660ec241d1df3c9d0269efb0c3f7921c44b3388a02207d13749e9539d59df843cd8757f341407372778f0af80c96742ade0d3f91ed410121023fa71bb422d27cfc0cd6e43440047b124121f5e4a515f8390a5853236a05e81b02473044022029a52186c958333a2d5d1ffb932c9c59a0a62e275c8dab0e5943d08e460c6b6c02206e3f1c71d2ebb0f81b67c4271d98c5574658b8904a779712fe0e93187e605301012102c95274a6defa0abcfd11c260e59c9091092e53763485f9321a014b8500e72c9c00000000",
        "blockhash": "00000000409414c9536f993a2fc16ec0c17a3e7804170e9f82f3ca5dccc82a02",
        "confirmations": 1,
        "time": 1617497614,
        "blocktime": 1617497614
    }
}