{
    "type": "block-cert",
    "id": "urn:xid:abc32c80-89e5-49f7-82d9-e9e3aebf2dc2",
    "meta": "QmYvZMVmjN6gzP7GhVzHhggXrYgAi2QZZtRPLYAghTdAEh",
    "version": 3,
    "prev": "QmWtEar4wVYc54EDdTi23mZwgu1wABY4pDohygLu4BCf63",
    "chain": "tBTC",
    "time": "2021-04-04 01:05:17+00:00",
    "owner": {
        "id": "urn:chain:tBTC:1969833:25:0",
        "tx": {
            "txid": "419b9a365f982c5f9e14c66ec6ec774a3d1ffacd074befb5fd26fbfd3bdd6609",
            "vout": 0
        },
        "addresses": [
            "2N35fcBH7r2GTiC32DwBCSUFJneQeXYAKkU"
        ]
    },
    "tx": {
        "txid": "419b9a365f982c5f9e14c66ec6ec774a3d1ffacd074befb5fd26fbfd3bdd6609",
        "hash": "95edaee4cb94b161f17dd43e8bdfcfac2383f2c1987b8082d1e498c08aeb0043",
        "version": 2,
        "size": 469,
        "vsize": 307,
        "weight": 1228,
        "locktime": 0,
        "vin": [
            {
                "txid": "5613f0120c2969de186bde8fe50563cec21e1614ecb8517037d1354265a9e48b",
                "vout": 0,
                "scriptSig": {
                    "asm": "0014edce9459052c29852d30aacb5d50f2b2895305f9",
                    "hex": "160014edce9459052c29852d30aacb5d50f2b2895305f9"
                },
                "txinwitness": [
                    "304402200c8df617df88e10756806dbe2eed0796cb02b73fe3944a3e85e8fb4dc559375002207c161a8277a9cbc93b00f323cc23d9893e31e50ac5d121a45365b0c5b92c854601",
                    "023f8fa20dfe7051e86fa687398312d39a05756a89097539b4cfbaf08860aaafda"
                ],
                "sequence": 4294967295
            },
            {
                "txid": "5613f0120c2969de186bde8fe50563cec21e1614ecb8517037d1354265a9e48b",
                "vout": 2,
                "scriptSig": {
                    "asm": "00145e8d8ae15907e5a056c780942cc2056f3f100879",
                    "hex": "1600145e8d8ae15907e5a056c780942cc2056f3f100879"
                },
                "txinwitness": [
                    "304402207c616e7bfdc81c3f375f1fe4c9b37ad5c091e6333332bf319d2724d3fc1fef85022051ad4ff52677d91e2b3d64e37898759992730f54ccf330324c7aa0a4695bd32201",
                    "0346fc15736a39c77a9493e0c5fc01eb40c44056b10468abe30f15492d6cb632aa"
                ],
                "sequence": 4294967294
            }
        ],
        "vout": [
            {
                "value": 1.234e-05,
                "n": 0,
                "scriptPubKey": {
                    "asm": "OP_HASH160 6be27bd85947923f1582089a70c1669ed5857ac6 OP_EQUAL",
                    "hex": "a9146be27bd85947923f1582089a70c1669ed5857ac687",
                    "reqSigs": 1,
                    "type": "scripthash",
                    "addresses": [
                        "2N35fcBH7r2GTiC32DwBCSUFJneQeXYAKkU"
                    ]
                }
            },
            {
                "value": 0.01001063,
                "n": 1,
                "scriptPubKey": {
                    "asm": "OP_HASH160 d24c0390d860b8a6f1f9cf68ce7a6dddbda9c643 OP_EQUAL",
                    "hex": "a914d24c0390d860b8a6f1f9cf68ce7a6dddbda9c64387",
                    "reqSigs": 1,
                    "type": "scripthash",
                    "addresses": [
                        "2NCRAx7FxrS3AFDxJuS5rZKRwzwxCysbh5Y"
                    ]
                }
            },
            {
                "value": 0.0,
                "n": 2,
                "scriptPubKey": {
                    "asm": "OP_RETURN 43494431017012209d448fbc6ccc5b9c6213ceced391fd42e74047af8eaa3a679b8031d54da282de",
                    "hex": "6a2843494431017012209d448fbc6ccc5b9c6213ceced391fd42e74047af8eaa3a679b8031d54da282de",
                    "type": "nulldata"
                }
            }
        ],
        "hex": "020000000001028be4a9654235d1377051b8ec14161ec2ce6305e58fde6b18de69290c12f013560000000017160014edce9459052c29852d30aacb5d50f2b2895305f9ffffffff8be4a9654235d1377051b8ec14161ec2ce6305e58fde6b18de69290c12f0135602000000171600145e8d8ae15907e5a056c780942cc2056f3f100879feffffff03d20400000000000017a9146be27bd85947923f1582089a70c1669ed5857ac68767460f000000000017a914d24c0390d860b8a6f1f9cf68ce7a6dddbda9c6438700000000000000002a6a2843494431017012209d448fbc6ccc5b9c6213ceced391fd42e74047af8eaa3a679b8031d54da282de0247304402200c8df617df88e10756806dbe2eed0796cb02b73fe3944a3e85e8fb4dc559375002207c161a8277a9cbc93b00f323cc23d9893e31e50ac5d121a45365b0c5b92c85460121023f8fa20dfe7051e86fa687398312d39a05756a89097539b4cfbaf08860aaafda0247304402207c616e7bfdc81c3f375f1fe4c9b37ad5c091e6333332bf319d2724d3fc1fef85022051ad4ff52677d91e2b3d64e37898759992730f54ccf330324c7aa0a4695bd32201210346fc15736a39c77a9493e0c5fc01eb40c44056b10468abe30f15492d6cb632aa00000000",
        "blockhash": "000000000000001b10120de9c19a54146ca9563eab5dcc99aba353d075dc7cd6",
        "confirmations": 1,
        "time": 1617498317,
        "blocktime": 1617498317
    }
}