{
    "type": "block-cert",
    "id": "urn:xid:892c016c-11a9-4bf6-a52b-036f7a13de6c",
    "meta": "Qmc62vxfonCs6YJ53CCvfB7YUHkrxbTphEnJxG4Roju2sT",
    "version": 1,
    "prev": "QmXoCX8Gq3EoNDq6Y2KUbvE2VBvh4XbsDRCZ2zrtnFZid6",
    "chain": "tBTC",
    "time": "2021-04-04 02:49:53+00:00",
    "owner": {
        "id": "urn:chain:tBTC:1969843:23:0",
        "tx": {
            "txid": "ec2b8fba48a9ea5e8ab16825a6859fc2ce79f7c253fd01897849151c8ecf07d1",
            "vout": 0
        },
        "addresses": [
            "2MthjY1nnb3q2kwQUoqpD79irhZ6TnCpSqs"
        ]
    },
    "tx": {
        "txid": "ec2b8fba48a9ea5e8ab16825a6859fc2ce79f7c253fd01897849151c8ecf07d1",
        "hash": "dfb1a278179de05d374563ee7a409699c1a7799b829b2746b70bd33f071e1bfc",
        "version": 2,
        "size": 469,
        "vsize": 307,
        "weight": 1228,
        "locktime": 0,
        "vin": [
            {
                "txid": "389f77a7b2ad580f7a625087e8e380d8c998e31f8ab0a91aa6768db3b28c42fb",
                "vout": 0,
                "scriptSig": {
                    "asm": "001444eae633083f8081773fe7acd63df126886469c3",
                    "hex": "16001444eae633083f8081773fe7acd63df126886469c3"
                },
                "txinwitness": [
                    "3044022054ec5b430b69469bee8de0b47beb148a35dc705fc7a9942e26e3a2a93cd2750e022038e9e3857b6fd0b8d7c38991cbb61871955f46a9f891e3e10d9a4db3351f001101",
                    "03b728eefa16f0f50f645b91890184174c71d256b84ba9bcef8e22c2ca945085bb"
                ],
                "sequence": 4294967295
            },
            {
                "txid": "7cbe500d80fc678799e3b95151f65d3d05f476cbc9c51a56d2a36a6b2e2b594f",
                "vout": 1,
                "scriptSig": {
                    "asm": "0014f605dd0b3538549aadb0d950b0c227d4b855272f",
                    "hex": "160014f605dd0b3538549aadb0d950b0c227d4b855272f"
                },
                "txinwitness": [
                    "304402203818e7b3ce4bab18d52f842407076476d4d26d71ff4ff9c2e05fe273d94ea84502207488431d24ef6d2e6f67895a5de8afb27c3ff17280b7496ac481720c08d8a7a101",
                    "03dd85b53cf281da6802399dc3444536a216932137b8c77eae3f28ed4f778c128b"
                ],
                "sequence": 4294967294
            }
        ],
        "vout": [
            {
                "value": 1.234e-05,
                "n": 0,
                "scriptPubKey": {
                    "asm": "OP_HASH160 0ffb9afea748ed20ea1876dee22b92b39b9ad7e7 OP_EQUAL",
                    "hex": "a9140ffb9afea748ed20ea1876dee22b92b39b9ad7e787",
                    "reqSigs": 1,
                    "type": "scripthash",
                    "addresses": [
                        "2MthjY1nnb3q2kwQUoqpD79irhZ6TnCpSqs"
                    ]
                }
            },
            {
                "value": 0.0,
                "n": 1,
                "scriptPubKey": {
                    "asm": "OP_RETURN 4349443101701220cc4507e90254267b5b1e01d3b676059b36503e865a42b7572d33b0273a5da692",
                    "hex": "6a284349443101701220cc4507e90254267b5b1e01d3b676059b36503e865a42b7572d33b0273a5da692",
                    "type": "nulldata"
                }
            },
            {
                "value": 0.02999693,
                "n": 2,
                "scriptPubKey": {
                    "asm": "OP_HASH160 e22910f423842702f98e7902875b60d7ff1bc5db OP_EQUAL",
                    "hex": "a914e22910f423842702f98e7902875b60d7ff1bc5db87",
                    "reqSigs": 1,
                    "type": "scripthash",
                    "addresses": [
                        "2NDs3ty9uPxUCnoBmR6HYr1kavntwofFGqb"
                    ]
                }
            }
        ],
        "hex": "02000000000102fb428cb2b38d76a61aa9b08a1fe398c9d880e3e88750627a0f58adb2a7779f38000000001716001444eae633083f8081773fe7acd63df126886469c3ffffffff4f592b2e6b6aa3d2561ac5c9cb76f4053d5df65151b9e3998767fc800d50be7c0100000017160014f605dd0b3538549aadb0d950b0c227d4b855272ffeffffff03d20400000000000017a9140ffb9afea748ed20ea1876dee22b92b39b9ad7e78700000000000000002a6a284349443101701220cc4507e90254267b5b1e01d3b676059b36503e865a42b7572d33b0273a5da6928dc52d000000000017a914e22910f423842702f98e7902875b60d7ff1bc5db8702473044022054ec5b430b69469bee8de0b47beb148a35dc705fc7a9942e26e3a2a93cd2750e022038e9e3857b6fd0b8d7c38991cbb61871955f46a9f891e3e10d9a4db3351f0011012103b728eefa16f0f50f645b91890184174c71d256b84ba9bcef8e22c2ca945085bb0247304402203818e7b3ce4bab18d52f842407076476d4d26d71ff4ff9c2e05fe273d94ea84502207488431d24ef6d2e6f67895a5de8afb27c3ff17280b7496ac481720c08d8a7a1012103dd85b53cf281da6802399dc3444536a216932137b8c77eae3f28ed4f778c128b00000000",
        "blockhash": "000000000000000aacde871b5a70c3f470138c819d5f4c407757cb8ad5062b62",
        "confirmations": 1,
        "time": 1617504593,
        "blocktime": 1617504593
    }
}