{
    "type": "block-cert",
    "id": "caaceed4-3a27-4956-b365-90904f8661dd",
    "meta": "QmeRL67kQ6fgPD4BVHTUQLn13TgMo3fdHBS3fsaDXphQbu",
    "version": 0,
    "prev": "",
    "chain": "BTC",
    "time": "2021-04-11 18:10:53+00:00",
    "owner": {
        "id": "urn:chain:BTC:678788:1208:0",
        "tx": {
            "txid": "90b3ccde54fec3413039bcadb32eb913b4933ac81ce2571b20c93dc6df62617f",
            "vout": 0
        },
        "addresses": [
            "bc1qgxmgcdxu0ache3x5edx88lyw3ludxnu6hk8u7s"
        ]
    },
    "tx": {
        "txid": "90b3ccde54fec3413039bcadb32eb913b4933ac81ce2571b20c93dc6df62617f",
        "hash": "af4b2da3d72616f1b71b57801b9a769b5345ab6d9354c8129fab7c8c657c64c8",
        "version": 2,
        "size": 273,
        "vsize": 192,
        "weight": 765,
        "locktime": 0,
        "vin": [
            {
                "txid": "3e41de39904d41ae02dd16d9647405228b06ec3b0fa707a4bce1af432e69d687",
                "vout": 0,
                "scriptSig": {
                    "asm": "",
                    "hex": ""
                },
                "txinwitness": [
                    "30440220310fcced0f6f5dd23269564352cd55301155955d6c7012f9a7acc8a371f8efbf02204ad2fb3e0963c8ec6d9fbf704203834da6492f4d7d9895ffbc22efab14a861a901",
                    "020666ca36e4586c6481d1710d4fb05ab81f2e125b6d24309a349d2058d0803705"
                ],
                "sequence": 4294967294
            }
        ],
        "vout": [
            {
                "value": 1.111e-05,
                "n": 0,
                "scriptPubKey": {
                    "asm": "0 41b68c34dc7f717cc4d4cb4c73fc8e8ff8d34f9a",
                    "hex": "001441b68c34dc7f717cc4d4cb4c73fc8e8ff8d34f9a",
                    "reqSigs": 1,
                    "type": "witness_v0_keyhash",
                    "addresses": [
                        "bc1qgxmgcdxu0ache3x5edx88lyw3ludxnu6hk8u7s"
                    ]
                }
            },
            {
                "value": 0.00014335,
                "n": 1,
                "scriptPubKey": {
                    "asm": "0 4ab44a178c2c2b0e993335cbd0896e9e967d258e",
                    "hex": "00144ab44a178c2c2b0e993335cbd0896e9e967d258e",
                    "reqSigs": 1,
                    "type": "witness_v0_keyhash",
                    "addresses": [
                        "bc1qf26y59uv9s4saxfnxh9apztwn6t86fvwa7wrcv"
                    ]
                }
            },
            {
                "value": 0.0,
                "n": 2,
                "scriptPubKey": {
                    "asm": "OP_RETURN 4349443101701220eeedd730fd8a808e683f4ff75e2f2e7af6825626386c3f9c854e55d86f3a7e94",
                    "hex": "6a284349443101701220eeedd730fd8a808e683f4ff75e2f2e7af6825626386c3f9c854e55d86f3a7e94",
                    "type": "nulldata"
                }
            }
        ],
        "hex": "0200000000010187d6692e43afe1bca407a70f3bec068b22057464d916dd02ae414d9039de413e0000000000feffffff03570400000000000016001441b68c34dc7f717cc4d4cb4c73fc8e8ff8d34f9aff370000000000001600144ab44a178c2c2b0e993335cbd0896e9e967d258e00000000000000002a6a284349443101701220eeedd730fd8a808e683f4ff75e2f2e7af6825626386c3f9c854e55d86f3a7e94024730440220310fcced0f6f5dd23269564352cd55301155955d6c7012f9a7acc8a371f8efbf02204ad2fb3e0963c8ec6d9fbf704203834da6492f4d7d9895ffbc22efab14a861a90121020666ca36e4586c6481d1710d4fb05ab81f2e125b6d24309a349d2058d080370500000000",
        "blockhash": "00000000000000000001ce5909bc3fcbc69835c6f43ed2ae6fe4e70fd31e9441",
        "confirmations": 31,
        "time": 1618164653,
        "blocktime": 1618164653
    }
}