{
    "type": "block-cert",
    "id": "urn:xid:d982419c-e5c9-4451-91c2-1d38942c91a9",
    "meta": "QmXVU9y5AYHAea6QAJoDLrtTKQRewx84snkDoWSTfn8Fxj",
    "version": 1,
    "prev": "QmVaLPks49FHmFkPFwoW6djmBpUpwnPGktvdx34T5xKV5N",
    "chain": "tBTC",
    "time": "2021-04-05 00:29:30+00:00",
    "owner": {
        "id": "urn:chain:tBTC:1969990:22:0",
        "tx": {
            "txid": "5f86cefc3388f8670073d42bdbb2cd8d77a6717222f577e0d26018bc4d57c931",
            "vout": 0
        },
        "addresses": [
            "tb1qtjxr8pn3nx4jufmqr69m5qmd3rcuxschf24p3r"
        ]
    },
    "tx": {
        "txid": "5f86cefc3388f8670073d42bdbb2cd8d77a6717222f577e0d26018bc4d57c931",
        "hash": "ce2980fb06eb230411b31b6fc863207ddcee56c4024d2f4a692d7db7ceb99151",
        "version": 2,
        "size": 444,
        "vsize": 282,
        "weight": 1128,
        "locktime": 0,
        "vin": [
            {
                "txid": "93d37cfa60b3ce1687b0f1822d70955149e5a625cb6dbb72f63b2de930046b41",
                "vout": 0,
                "scriptSig": {
                    "asm": "",
                    "hex": ""
                },
                "txinwitness": [
                    "30440220129a4834fff942f66e0e833adbb52705248c399c3001936b39fc27d9da0abeed02200aa54c6aaf896195114db81fcc746f2a9705e22719c328f1d4133ee72f058a3d01",
                    "03542b2553fc1f81ae930c9bc81a440293cad1539ba2024622595785da3f92e003"
                ],
                "sequence": 4294967295
            },
            {
                "txid": "c65137d3a466201fb8b71bd8769e214fbed9b4ace79229c2947cd73771329e74",
                "vout": 1,
                "scriptSig": {
                    "asm": "001475ed23b4525d0ac8d7132e338e74b2e9c6885aba",
                    "hex": "16001475ed23b4525d0ac8d7132e338e74b2e9c6885aba"
                },
                "txinwitness": [
                    "3044022007ef41c9895ddc359ccc029ef8610dec66f98534b80c9c4e10f5294ca2e9ad4902204de3876863f5dab9b4f932d0de78dd720e002ca59f27684497fb819cfebf54cc01",
                    "03cbe26e596dc415d56a5ce90ea57a2a0fc64be157b8bd933c779a7c3998719a6f"
                ],
                "sequence": 4294967294
            }
        ],
        "vout": [
            {
                "value": 1.234e-05,
                "n": 0,
                "scriptPubKey": {
                    "asm": "0 5c8c33867199ab2e27601e8bba036d88f1c34317",
                    "hex": "00145c8c33867199ab2e27601e8bba036d88f1c34317",
                    "reqSigs": 1,
                    "type": "witness_v0_keyhash",
                    "addresses": [
                        "tb1qtjxr8pn3nx4jufmqr69m5qmd3rcuxschf24p3r"
                    ]
                }
            },
            {
                "value": 0.0,
                "n": 1,
                "scriptPubKey": {
                    "asm": "OP_RETURN 434944310170122087fb79dd7159ae3d79743ffb27aed0af30a23b858bed24f6ed904bd52d226740",
                    "hex": "6a28434944310170122087fb79dd7159ae3d79743ffb27aed0af30a23b858bed24f6ed904bd52d226740",
                    "type": "nulldata"
                }
            },
            {
                "value": 0.03999411,
                "n": 2,
                "scriptPubKey": {
                    "asm": "0 ff6164e6b1f4d9dcdd013bd83961d4b2e4548cc7",
                    "hex": "0014ff6164e6b1f4d9dcdd013bd83961d4b2e4548cc7",
                    "reqSigs": 1,
                    "type": "witness_v0_keyhash",
                    "addresses": [
                        "tb1qlaskfe437nvaehgp80vrjcw5ktj9frx85vyfku"
                    ]
                }
            }
        ],
        "hex": "02000000000102416b0430e92d3bf672bb6dcb25a6e5495195702d82f1b08716ceb360fa7cd3930000000000ffffffff749e327137d77c94c22992e7acb4d9be4f219e76d81bb7b81f2066a4d33751c6010000001716001475ed23b4525d0ac8d7132e338e74b2e9c6885abafeffffff03d2040000000000001600145c8c33867199ab2e27601e8bba036d88f1c3431700000000000000002a6a28434944310170122087fb79dd7159ae3d79743ffb27aed0af30a23b858bed24f6ed904bd52d226740b3063d0000000000160014ff6164e6b1f4d9dcdd013bd83961d4b2e4548cc7024730440220129a4834fff942f66e0e833adbb52705248c399c3001936b39fc27d9da0abeed02200aa54c6aaf896195114db81fcc746f2a9705e22719c328f1d4133ee72f058a3d012103542b2553fc1f81ae930c9bc81a440293cad1539ba2024622595785da3f92e00302473044022007ef41c9895ddc359ccc029ef8610dec66f98534b80c9c4e10f5294ca2e9ad4902204de3876863f5dab9b4f932d0de78dd720e002ca59f27684497fb819cfebf54cc012103cbe26e596dc415d56a5ce90ea57a2a0fc64be157b8bd933c779a7c3998719a6f00000000",
        "blockhash": "000000000000000c98f75b90015693ff3735655945fa95c3ac48feb381121e6a",
        "confirmations": 2,
        "time": 1617582570,
        "blocktime": 1617582570
    }
}