{
    "type": "block-cert",
    "xid": "0ac0a516-9d13-4e8c-a381-a998770529d5",
    "cid": "QmVwSBh8s8wzG5i3iU8fco39oEUxsSuAkisa8NGJSbrTSi",
    "version": 0,
    "prev": "",
    "chain": "tBTC",
    "time": "2021-04-16 19:19:44+00:00",
    "owner": {
        "id": "urn:chain:tBTC:1971684:33:0",
        "tx": {
            "txid": "8c17588141797dd1d3405161e62e07e625ff9bdf1081b726b911c0e6274e1610",
            "vout": 0
        },
        "addresses": [
            "tb1qnqcatd8rky6mtu0fpjkkpmwnsd7nwdfdnj9rjd"
        ]
    },
    "tx": {
        "txid": "8c17588141797dd1d3405161e62e07e625ff9bdf1081b726b911c0e6274e1610",
        "hash": "3171824580fcc8e8f1377d1973245a729dbc7a300e49b996afc5e07e16e79550",
        "version": 2,
        "size": 609,
        "vsize": 367,
        "weight": 1467,
        "locktime": 0,
        "vin": [
            {
                "txid": "169d0194b3e3c3994bbbfa22e98ae7de0792b5642d965bfa9f8050127e26617f",
                "vout": 2,
                "scriptSig": {
                    "asm": "",
                    "hex": ""
                },
                "txinwitness": [
                    "3044022001e1485a059a6be2543e24ba78a34eb7cfc9cfc3f283c0c785759ed2aa394a7602207ca9f3c362653489f835d9f349348357d3dd0a1282429fe992f2ef5aaf6c94da01",
                    "02965c503350b1e83a6f0c75f84802caca60d05deec5bbb1338b4b10803d5134f9"
                ],
                "sequence": 4294967294
            },
            {
                "txid": "f5958fd187c363bf0728fd01f85b5826c5bf108659905e284de24f8c4fb9d1dd",
                "vout": 1,
                "scriptSig": {
                    "asm": "0014786309bfb7961c83f2af24645031e8e1e9170880",
                    "hex": "160014786309bfb7961c83f2af24645031e8e1e9170880"
                },
                "txinwitness": [
                    "30440220483ed1c4550f5ded6087b834041ac3006a6859c4f7065cd7d207775885ed6a060220209dcc505d1cc5305727080bf0d9c351218a4bd7c9eb91aef3e03b2a0dd82be401",
                    "02453af07bd33506042380bee7c495f7b5ef11594194dae9b4c63af28e16e28857"
                ],
                "sequence": 4294967294
            },
            {
                "txid": "334c60766257629ab56a5d3cd8069e4f5b3ea43f364d6207d84ba219be76db17",
                "vout": 0,
                "scriptSig": {
                    "asm": "001491d79804ad001674b07df2f2efd43af04f26a8e0",
                    "hex": "16001491d79804ad001674b07df2f2efd43af04f26a8e0"
                },
                "txinwitness": [
                    "3044022008ab124432b7022359ebc0ba073d9c0ec96fb6116463f64c7d40d113cb6269ae02205270b91ff34fda58e9b2984105aeec2325c45466dfea81f2bead2e43ea02113b01",
                    "02dcfbff6fef2f6e5076070c414923a7323f17d6c742f33aa727453950b2ffac73"
                ],
                "sequence": 4294967294
            }
        ],
        "vout": [
            {
                "value": 1.111e-05,
                "n": 0,
                "scriptPubKey": {
                    "asm": "0 9831d5b4e3b135b5f1e90cad60edd3837d37352d",
                    "hex": "00149831d5b4e3b135b5f1e90cad60edd3837d37352d",
                    "reqSigs": 1,
                    "type": "witness_v0_keyhash",
                    "addresses": [
                        "tb1qnqcatd8rky6mtu0fpjkkpmwnsd7nwdfdnj9rjd"
                    ]
                }
            },
            {
                "value": 0.0,
                "n": 1,
                "scriptPubKey": {
                    "asm": "OP_RETURN 122070eaf9b6bc038d1afa4a4741c200088da9a27eb7f3865bdba10e004c1c882ca3",
                    "hex": "6a22122070eaf9b6bc038d1afa4a4741c200088da9a27eb7f3865bdba10e004c1c882ca3",
                    "type": "nulldata"
                }
            },
            {
                "value": 0.0100035,
                "n": 2,
                "scriptPubKey": {
                    "asm": "0 255507112551f381a037bcafe0e0af579c5a9b4f",
                    "hex": "0014255507112551f381a037bcafe0e0af579c5a9b4f",
                    "reqSigs": 1,
                    "type": "witness_v0_keyhash",
                    "addresses": [
                        "tb1qy42swyf928ecrgphhjh7pc9027w94x604zm4hp"
                    ]
                }
            }
        ],
        "hex": "020000000001037f61267e1250809ffa5b962d64b59207dee78ae922fabb4b99c3e3b394019d160200000000feffffffddd1b94f8c4fe24d285e90598610bfc526585bf801fd2807bf63c387d18f95f50100000017160014786309bfb7961c83f2af24645031e8e1e9170880feffffff17db76be19a24bd807624d363fa43e5b4f9e06d83c5d6ab59a62576276604c33000000001716001491d79804ad001674b07df2f2efd43af04f26a8e0feffffff0357040000000000001600149831d5b4e3b135b5f1e90cad60edd3837d37352d0000000000000000246a22122070eaf9b6bc038d1afa4a4741c200088da9a27eb7f3865bdba10e004c1c882ca39e430f0000000000160014255507112551f381a037bcafe0e0af579c5a9b4f02473044022001e1485a059a6be2543e24ba78a34eb7cfc9cfc3f283c0c785759ed2aa394a7602207ca9f3c362653489f835d9f349348357d3dd0a1282429fe992f2ef5aaf6c94da012102965c503350b1e83a6f0c75f84802caca60d05deec5bbb1338b4b10803d5134f9024730440220483ed1c4550f5ded6087b834041ac3006a6859c4f7065cd7d207775885ed6a060220209dcc505d1cc5305727080bf0d9c351218a4bd7c9eb91aef3e03b2a0dd82be4012102453af07bd33506042380bee7c495f7b5ef11594194dae9b4c63af28e16e2885702473044022008ab124432b7022359ebc0ba073d9c0ec96fb6116463f64c7d40d113cb6269ae02205270b91ff34fda58e9b2984105aeec2325c45466dfea81f2bead2e43ea02113b012102dcfbff6fef2f6e5076070c414923a7323f17d6c742f33aa727453950b2ffac7300000000",
        "blockhash": "00000000e8ea5d45d44c315366d4dce1b8e1da863e1801617f397aca9db88295",
        "confirmations": 1,
        "time": 1618600784,
        "blocktime": 1618600784
    }
}