{
    "type": "block-cert",
    "id": "urn:xid:892c016c-11a9-4bf6-a52b-036f7a13de6c",
    "meta": "QmW8W8H7HW3vjoFu2uMduikVMZyvev9s7Nz56m7FV4Kxf8",
    "version": 0,
    "prev": "",
    "chain": "tBTC",
    "time": "2021-04-04 02:49:53+00:00",
    "owner": {
        "id": "urn:chain:tBTC:1969843:22:0",
        "tx": {
            "txid": "389f77a7b2ad580f7a625087e8e380d8c998e31f8ab0a91aa6768db3b28c42fb",
            "vout": 0
        },
        "addresses": [
            "2NFet44a3yhsxc2PTxKcECP3uwf7jR12pg2"
        ]
    },
    "tx": {
        "txid": "389f77a7b2ad580f7a625087e8e380d8c998e31f8ab0a91aa6768db3b28c42fb",
        "hash": "dd8b83931a110a4b6f27ca1094b6cda7e0f29bb9ca5c027f0042b2af1eecf3b9",
        "version": 2,
        "size": 469,
        "vsize": 307,
        "weight": 1228,
        "locktime": 0,
        "vin": [
            {
                "txid": "e6f62105e91252ff659f4b58aea6fe6889eea8366ebb0572dc38580dfde81465",
                "vout": 1,
                "scriptSig": {
                    "asm": "001471dc3c58ac70cf3fecabc72b52468bf6d8fb2cbe",
                    "hex": "16001471dc3c58ac70cf3fecabc72b52468bf6d8fb2cbe"
                },
                "txinwitness": [
                    "30440220087280fbaaff640849c08a54eac487ec11778f3f0a9ea4a1eee7650bd65417f3022020b2ca64440391b3c4a8eaa86e7cd886fa0f13f1be32a5d19d5e1ebb6bbe78c701",
                    "039638442c374e229f035e130bca11e3a1d56ccd0c1d51b77628695127e98b571f"
                ],
                "sequence": 4294967294
            },
            {
                "txid": "419b9a365f982c5f9e14c66ec6ec774a3d1ffacd074befb5fd26fbfd3bdd6609",
                "vout": 1,
                "scriptSig": {
                    "asm": "0014be8c7c63a2c681e3788a8fe51fe2da54f1729dd1",
                    "hex": "160014be8c7c63a2c681e3788a8fe51fe2da54f1729dd1"
                },
                "txinwitness": [
                    "304402201b403d4cc2b699ac71da1459ca31702d141434fcedb72570445906df02c386fc02205a1ebfded38e86c1e68b813e5f2f5c1aa335d823f4a13b7e28cf189a0010bfb501",
                    "0207aa13cb53e1c94cac1cfa07ad769cd2203d27ed86c6573f66c36071363f8782"
                ],
                "sequence": 4294967294
            }
        ],
        "vout": [
            {
                "value": 1.234e-05,
                "n": 0,
                "scriptPubKey": {
                    "asm": "OP_HASH160 f5cc1c0b4889db012d13337a7383304180b65daf OP_EQUAL",
                    "hex": "a914f5cc1c0b4889db012d13337a7383304180b65daf87",
                    "reqSigs": 1,
                    "type": "scripthash",
                    "addresses": [
                        "2NFet44a3yhsxc2PTxKcECP3uwf7jR12pg2"
                    ]
                }
            },
            {
                "value": 0.0,
                "n": 1,
                "scriptPubKey": {
                    "asm": "OP_RETURN 434944310170122073c0d212b7fb9c3028a45ef4ddc58677dcdf7750e58af8e04fd131db2130835f",
                    "hex": "6a28434944310170122073c0d212b7fb9c3028a45ef4ddc58677dcdf7750e58af8e04fd131db2130835f",
                    "type": "nulldata"
                }
            },
            {
                "value": 0.01000522,
                "n": 2,
                "scriptPubKey": {
                    "asm": "OP_HASH160 3944ad186f00d553b210ef3fe693248a854b1f77 OP_EQUAL",
                    "hex": "a9143944ad186f00d553b210ef3fe693248a854b1f7787",
                    "reqSigs": 1,
                    "type": "scripthash",
                    "addresses": [
                        "2MxU2mvNvDY3EP1gHCNvdidMrYd2EJ2oiyV"
                    ]
                }
            }
        ],
        "hex": "020000000001026514e8fd0d5838dc7205bb6e36a8ee8968fea6ae584b9f65ff5212e90521f6e6010000001716001471dc3c58ac70cf3fecabc72b52468bf6d8fb2cbefeffffff0966dd3bfdfb26fdb5ef4b07cdfa1f3d4a77ecc66ec6149e5f2c985f369a9b410100000017160014be8c7c63a2c681e3788a8fe51fe2da54f1729dd1feffffff03d20400000000000017a914f5cc1c0b4889db012d13337a7383304180b65daf8700000000000000002a6a28434944310170122073c0d212b7fb9c3028a45ef4ddc58677dcdf7750e58af8e04fd131db2130835f4a440f000000000017a9143944ad186f00d553b210ef3fe693248a854b1f7787024730440220087280fbaaff640849c08a54eac487ec11778f3f0a9ea4a1eee7650bd65417f3022020b2ca64440391b3c4a8eaa86e7cd886fa0f13f1be32a5d19d5e1ebb6bbe78c70121039638442c374e229f035e130bca11e3a1d56ccd0c1d51b77628695127e98b571f0247304402201b403d4cc2b699ac71da1459ca31702d141434fcedb72570445906df02c386fc02205a1ebfded38e86c1e68b813e5f2f5c1aa335d823f4a13b7e28cf189a0010bfb501210207aa13cb53e1c94cac1cfa07ad769cd2203d27ed86c6573f66c36071363f878200000000",
        "blockhash": "000000000000000aacde871b5a70c3f470138c819d5f4c407757cb8ad5062b62",
        "confirmations": 1,
        "time": 1617504593,
        "blocktime": 1617504593
    }
}