{
    "id": "urn:xid:7b5b4a01-e3b4-4e57-95fe-0c5664dc1a01",
    "type": "block-cert",
    "cid": "QmeuJTFYWaLv3CMQv3m6FaWDrEQ6HwJZjE3YYrkAGZZGcs",
    "version": 0,
    "chain": "tBTC",
    "tx": {
        "txid": "78e189eff6ce7b6437d207ff5c5727126a61b3d7d573ef61c450c54302d90bb0",
        "hash": "ad61a05078f1ddf7b61f877aacc8b1b3ff55252ac60386594809f5813696682b",
        "version": 2,
        "size": 264,
        "vsize": 183,
        "weight": 729,
        "locktime": 0,
        "vin": [
          {
            "txid": "7cbe500d80fc678799e3b95151f65d3d05f476cbc9c51a56d2a36a6b2e2b594f",
            "vout": 0,
            "scriptSig": {
              "asm": "0014b9803bd4e1e4bf69148d2ec444852929889095b3",
              "hex": "160014b9803bd4e1e4bf69148d2ec444852929889095b3"
            },
            "txinwitness": [
              "304402203e91c7e99093efde992169340997577e0229b6988db4b3d90f1ffc6f2302c459022012f14b1ece72757da85b51bb229245462fd3c0ebfb5d5a3516e885fe2af6368401",
              "03e8f8fd1c606682a73566fbbc56e442c4e8fce58ee6c18f872e94743d4d387368"
            ],
            "sequence": 4294967294
          }
        ],
        "vout": [
          {
            "value": 0.01007822,
            "n": 0,
            "scriptPubKey": {
              "asm": "OP_HASH160 9897ec285f313cb7b145c30d3de3cb1cea21fff3 OP_EQUAL",
              "hex": "a9149897ec285f313cb7b145c30d3de3cb1cea21fff387",
              "reqSigs": 1,
              "type": "scripthash",
              "addresses": [
                "2N7A4hCfUDx8WW2tQNFM48Y4BK1SQorPNkz"
              ]
            }
          },
          {
            "value": 0.00000000,
            "n": 1,
            "scriptPubKey": {
              "asm": "OP_RETURN 434944311220f61840fc5fa5dcd7030eaa29f80f812c5a34980aeb8ea10f015a6c5816d5275c",
              "hex": "6a26434944311220f61840fc5fa5dcd7030eaa29f80f812c5a34980aeb8ea10f015a6c5816d5275c",
              "type": "nulldata"
            }
          }
        ],
        "hex": "020000000001014f592b2e6b6aa3d2561ac5c9cb76f4053d5df65151b9e3998767fc800d50be7c0000000017160014b9803bd4e1e4bf69148d2ec444852929889095b3feffffff02ce600f000000000017a9149897ec285f313cb7b145c30d3de3cb1cea21fff3870000000000000000286a26434944311220f61840fc5fa5dcd7030eaa29f80f812c5a34980aeb8ea10f015a6c5816d5275c0247304402203e91c7e99093efde992169340997577e0229b6988db4b3d90f1ffc6f2302c459022012f14b1ece72757da85b51bb229245462fd3c0ebfb5d5a3516e885fe2af63684012103e8f8fd1c606682a73566fbbc56e442c4e8fce58ee6c18f872e94743d4d38736800000000",
        "blockhash": "00000000000000281f9c60375efbe53c98f64f962bde616435b5b815e719ae3a",
        "confirmations": 49,
        "time": 1617374937,
        "blocktime": 1617374937
    }     
}
