{
    "id": "urn:xid:7b5b4a01-e3b4-4e57-95fe-0c5664dc1a01",
    "type": "block-cert",
    "cid": "QmUZc1UF25Q5R6nu2W83Yi6RNREXjxD43T1xzSw9rxLrEp",
    "version": 1,
    "prev": "QmUuHnLNvLcrmbLRSxxGJah66GZfVGHVL5ih2nN5CsAzkC",
    "chain": "tBTC",
    "tx": {
      "txid": "42763cc4e44a7dc9def2b0d072cb0895269c9f809137f5f3c75dc7d28f0b82f8",
      "hash": "b76101d771e30ab3c34123bce0005ce6cb7820cafda0338f9558f29f51642f7e",
      "version": 2,
      "size": 264,
      "vsize": 183,
      "weight": 729,
      "locktime": 0,
      "vin": [
        {
          "txid": "78e189eff6ce7b6437d207ff5c5727126a61b3d7d573ef61c450c54302d90bb0",
          "vout": 0,
          "scriptSig": {
            "asm": "0014edc4811e637bf4b2b5193c83e5a4df902a008389",
            "hex": "160014edc4811e637bf4b2b5193c83e5a4df902a008389"
          },
          "txinwitness": [
            "3044022071ee7841209404940ec88f5e0d328bb20ee41c7358d53abe9adae78f1c960bd1022009e33bc74df278c533537375d41a07ec15240ad9ed8cca5347c043569872979701",
            "03f60101b1668ca35f6bd7a32d18dd71a50d297d18f30ad0ea353f07fc03a00947"
          ],
          "sequence": 4294967295
        }
      ],
      "vout": [
        {
          "value": 0.01007639,
          "n": 0,
          "scriptPubKey": {
            "asm": "OP_HASH160 cbe0cea7b53d3c171dbc01ab2f56a8eeb610c87c OP_EQUAL",
            "hex": "a914cbe0cea7b53d3c171dbc01ab2f56a8eeb610c87c87",
            "reqSigs": 1,
            "type": "scripthash",
            "addresses": [
              "2NBqEU79hWAL9FU5DqKWZFK9cYXWvEvxT8H"
            ]
          }
        },
        {
          "value": 0.00000000,
          "n": 1,
          "scriptPubKey": {
            "asm": "OP_RETURN 4349443112205c779e542b5be1231bc46bb41dbf99371bf7ac10f89860d36a1ee008e172720d",
            "hex": "6a264349443112205c779e542b5be1231bc46bb41dbf99371bf7ac10f89860d36a1ee008e172720d",
            "type": "nulldata"
          }
        }
      ],
      "hex": "02000000000101b00bd90243c550c461ef73d5d7b3616a1227575cff07d237647bcef6ef89e1780000000017160014edc4811e637bf4b2b5193c83e5a4df902a008389ffffffff0217600f000000000017a914cbe0cea7b53d3c171dbc01ab2f56a8eeb610c87c870000000000000000286a264349443112205c779e542b5be1231bc46bb41dbf99371bf7ac10f89860d36a1ee008e172720d02473044022071ee7841209404940ec88f5e0d328bb20ee41c7358d53abe9adae78f1c960bd1022009e33bc74df278c533537375d41a07ec15240ad9ed8cca5347c0435698729797012103f60101b1668ca35f6bd7a32d18dd71a50d297d18f30ad0ea353f07fc03a0094700000000",
      "blockhash": "00000000000000281f9c60375efbe53c98f64f962bde616435b5b815e719ae3a",
      "confirmations": 50,
      "time": 1617374937,
      "blocktime": 1617374937
  }
}
