{
    "type": "block-cert",
    "id": "urn:xid:892c016c-11a9-4bf6-a52b-036f7a13de6c",
    "meta": "QmQK7petDpgU7GpXHibtXdr9frJQdhWJD5YRPRfgYF8H47",
    "version": 4,
    "prev": "QmSm6oYxKQzXkQLZNqPTzr1SJLTxNxSVudS856APuF337m",
    "chain": "tBTC",
    "time": "2021-04-04 03:08:08+00:00",
    "owner": {
        "id": "urn:chain:tBTC:1969845:11:0",
        "tx": {
            "txid": "8cc169a06f250adf82f01a033c0f40edc0f3d32b1c197b09ff6acd6893bcd604",
            "vout": 0
        },
        "addresses": [
            "tb1qlhdqy30wg5rlu2vrf97tp7htts8sam8mpsrpdq"
        ]
    },
    "tx": {
        "txid": "8cc169a06f250adf82f01a033c0f40edc0f3d32b1c197b09ff6acd6893bcd604",
        "hash": "b576a569a0058e27357614ffc5d7cdd2c7b682fe3ca160d6c6911247dd9065d0",
        "version": 2,
        "size": 444,
        "vsize": 282,
        "weight": 1128,
        "locktime": 0,
        "vin": [
            {
                "txid": "66f282a95551ea5c61677fe1c90b7784851631bf41a9998d4906d5ef35906cf5",
                "vout": 1,
                "scriptSig": {
                    "asm": "",
                    "hex": ""
                },
                "txinwitness": [
                    "30440220677072905c167abd40eda068ec529ab89ae67c6f1886106ea1e08ed4d00c0f3a02207dfb9d30138ea63ee98257eb2024e9f8ac9782b4cb67edb446783d40cba046d301",
                    "036d3df246d3b740dc6f48d07ea49c5adc63a322ad9f901db607330abdb841b495"
                ],
                "sequence": 4294967295
            },
            {
                "txid": "ec2b8fba48a9ea5e8ab16825a6859fc2ce79f7c253fd01897849151c8ecf07d1",
                "vout": 2,
                "scriptSig": {
                    "asm": "0014f5ff53cde4681c43fd9fdc9397c1c4c90d100731",
                    "hex": "160014f5ff53cde4681c43fd9fdc9397c1c4c90d100731"
                },
                "txinwitness": [
                    "30440220052752e8908280dd157d207bd3630dc4a596c967b73e0b7757145ea2ac7dec2f0220650aa5c0f4f9a4a3010bdc1986cddd09e9cff9cb992ff22366ff4fa30f6426c201",
                    "02f6a282cf6f3e494525fd2e9f745d086c910fb9474be4fcff646053e79dd2bf4a"
                ],
                "sequence": 4294967294
            }
        ],
        "vout": [
            {
                "value": 1.234e-05,
                "n": 0,
                "scriptPubKey": {
                    "asm": "0 fdda0245ee4507fe2983497cb0faeb5c0f0eecfb",
                    "hex": "0014fdda0245ee4507fe2983497cb0faeb5c0f0eecfb",
                    "reqSigs": 1,
                    "type": "witness_v0_keyhash",
                    "addresses": [
                        "tb1qlhdqy30wg5rlu2vrf97tp7htts8sam8mpsrpdq"
                    ]
                }
            },
            {
                "value": 0.02999411,
                "n": 1,
                "scriptPubKey": {
                    "asm": "0 f9972cc7b94838f85aec55fe8be8c5c1b6eabefd",
                    "hex": "0014f9972cc7b94838f85aec55fe8be8c5c1b6eabefd",
                    "reqSigs": 1,
                    "type": "witness_v0_keyhash",
                    "addresses": [
                        "tb1qlxtje3aefqu0skhv2hlgh6x9cxmw40hannnqr3"
                    ]
                }
            },
            {
                "value": 0.0,
                "n": 2,
                "scriptPubKey": {
                    "asm": "OP_RETURN 43494431017012201d52de6e5b92256e713075261f0555a3fbe435dfa52e1aaab6fd32753a7d0e0c",
                    "hex": "6a2843494431017012201d52de6e5b92256e713075261f0555a3fbe435dfa52e1aaab6fd32753a7d0e0c",
                    "type": "nulldata"
                }
            }
        ],
        "hex": "02000000000102f56c9035efd506498d99a941bf31168584770bc9e17f67615cea5155a982f2660100000000ffffffffd107cf8e1c1549788901fd53c2f779cec29f85a62568b18a5eeaa948ba8f2bec0200000017160014f5ff53cde4681c43fd9fdc9397c1c4c90d100731feffffff03d204000000000000160014fdda0245ee4507fe2983497cb0faeb5c0f0eecfb73c42d0000000000160014f9972cc7b94838f85aec55fe8be8c5c1b6eabefd00000000000000002a6a2843494431017012201d52de6e5b92256e713075261f0555a3fbe435dfa52e1aaab6fd32753a7d0e0c024730440220677072905c167abd40eda068ec529ab89ae67c6f1886106ea1e08ed4d00c0f3a02207dfb9d30138ea63ee98257eb2024e9f8ac9782b4cb67edb446783d40cba046d30121036d3df246d3b740dc6f48d07ea49c5adc63a322ad9f901db607330abdb841b495024730440220052752e8908280dd157d207bd3630dc4a596c967b73e0b7757145ea2ac7dec2f0220650aa5c0f4f9a4a3010bdc1986cddd09e9cff9cb992ff22366ff4fa30f6426c2012102f6a282cf6f3e494525fd2e9f745d086c910fb9474be4fcff646053e79dd2bf4a00000000",
        "blockhash": "00000000000000041df731b82743f65f67d0a544c9bed32183385876ec528f7d",
        "confirmations": 335,
        "time": 1617505688,
        "blocktime": 1617505688
    }
}