{
    "type": "block-cert",
    "id": "urn:xid:6aa68cd8-4d4b-4506-82ea-9f481ff03325",
    "meta": "QmXVrXpfNCKFehTTCNB5npNSR3C5xiDQFCYERZ7FBRcHT5",
    "version": 0,
    "prev": "",
    "chain": "tBTC",
    "owner": {
        "id": "urn:chain:tBTC:1969638:127:0",
        "tx": {
            "txid": "a9154b8f7047e95e98e74c5007f3a7ad1d310d00f7d1339868d41fc2e588c100",
            "n": 0
        },
        "addresses": [
            "2NGMKP3jZHcd5sq9EdzSmm1MwAz4ggNdwiH"
        ]
    },
    "tx": {
        "txid": "a9154b8f7047e95e98e74c5007f3a7ad1d310d00f7d1339868d41fc2e588c100",
        "hash": "d24428ef53f5b61ad0bd08286b4c057af01192c15616316fe1a6909c44ad650b",
        "version": 2,
        "size": 264,
        "vsize": 183,
        "weight": 729,
        "locktime": 0,
        "vin": [
            {
                "txid": "42763cc4e44a7dc9def2b0d072cb0895269c9f809137f5f3c75dc7d28f0b82f8",
                "vout": 0,
                "scriptSig": {
                    "asm": "00147795ed9dcc892208250cf580097becefa3146e7e",
                    "hex": "1600147795ed9dcc892208250cf580097becefa3146e7e"
                },
                "txinwitness": [
                    "3044022016ac82f0364eceba350204606a229e015ffeeb977b1b17ec7787e20753f30ada02206c02831bf506b6d2655de691b20caf75b980332762b7e81b72bb16d88a5f1dad01",
                    "033aec05c3a8b79887f8f35262430873dcf288747b29b3d2636f43255d80dd62af"
                ],
                "sequence": 4294967295
            }
        ],
        "vout": [
            {
                "value": 0.01007456,
                "n": 0,
                "scriptPubKey": {
                    "asm": "OP_HASH160 fd71e3e529d17c9e94b0b2dabb293f3924cdc56f OP_EQUAL",
                    "hex": "a914fd71e3e529d17c9e94b0b2dabb293f3924cdc56f87",
                    "reqSigs": 1,
                    "type": "scripthash",
                    "addresses": [
                        "2NGMKP3jZHcd5sq9EdzSmm1MwAz4ggNdwiH"
                    ]
                }
            },
            {
                "value": 0.0,
                "n": 1,
                "scriptPubKey": {
                    "asm": "OP_RETURN 4349443112206a94af171f3a29af7897a5c7861c32938659709096826716b7095b74d82bcabd",
                    "hex": "6a264349443112206a94af171f3a29af7897a5c7861c32938659709096826716b7095b74d82bcabd",
                    "type": "nulldata"
                }
            }
        ],
        "hex": "02000000000101f8820b8fd2c75dc7f3f53791809f9c269508cb72d0b0f2dec97d4ae4c43c764200000000171600147795ed9dcc892208250cf580097becefa3146e7effffffff02605f0f000000000017a914fd71e3e529d17c9e94b0b2dabb293f3924cdc56f870000000000000000286a264349443112206a94af171f3a29af7897a5c7861c32938659709096826716b7095b74d82bcabd02473044022016ac82f0364eceba350204606a229e015ffeeb977b1b17ec7787e20753f30ada02206c02831bf506b6d2655de691b20caf75b980332762b7e81b72bb16d88a5f1dad0121033aec05c3a8b79887f8f35262430873dcf288747b29b3d2636f43255d80dd62af00000000",
        "blockhash": "00000000fec9062934f196ebfb4a2c4018d51328bb44ae09aed25d5b4ff90de4",
        "confirmations": 157,
        "time": 1617390501,
        "blocktime": 1617390501
    }
}