{
    "type": "block-cert",
    "id": "urn:xid:d982419c-e5c9-4451-91c2-1d38942c91a9",
    "meta": "QmQCrUV4Uk9ZARPQgyxjCq5s4WAfNxwa7uQzqno8mxWZyG",
    "version": 0,
    "prev": "",
    "chain": "tBTC",
    "time": "2021-04-05 00:29:30+00:00",
    "owner": {
        "id": "urn:chain:tBTC:1969990:21:0",
        "tx": {
            "txid": "93d37cfa60b3ce1687b0f1822d70955149e5a625cb6dbb72f63b2de930046b41",
            "vout": 0
        },
        "addresses": [
            "tb1q0zku44va9gw99k69qarff26ew3l4ha5cpdszvn"
        ]
    },
    "tx": {
        "txid": "93d37cfa60b3ce1687b0f1822d70955149e5a625cb6dbb72f63b2de930046b41",
        "hash": "a93e032033d70a54f572deb42473b9cd017aec6c39be4f3327b1f8b2e8844847",
        "version": 2,
        "size": 421,
        "vsize": 259,
        "weight": 1036,
        "locktime": 0,
        "vin": [
            {
                "txid": "81f649cade4867dceebd1fbca5e99809ab878c6afb637c0628464c817c1807db",
                "vout": 0,
                "scriptSig": {
                    "asm": "",
                    "hex": ""
                },
                "txinwitness": [
                    "30440220200be48085dd68f931f3f978281b5c953cafd1ebcbeb63c303dcf01a6d74a58c022002db8b90e9696924b33322701494e0580802501177d56a527d02eedf3db0eee601",
                    "03a8b2f7905475bdc6324f3df2bd515f90a84d45b4bf82c8aea50181b40da23d67"
                ],
                "sequence": 4294967295
            },
            {
                "txid": "8cc169a06f250adf82f01a033c0f40edc0f3d32b1c197b09ff6acd6893bcd604",
                "vout": 1,
                "scriptSig": {
                    "asm": "",
                    "hex": ""
                },
                "txinwitness": [
                    "304402204f460f91b7ffbfcb57c7e760a00060205c3ed4f5144a9aa2c37ffc4e27a66d0702200eb4c986873aec370aea2fde739a6f443bb8339fba231508ee21cc783871b83101",
                    "0392c295277830b86bbca66b1007b26ebb63cf88ee6e7841a5b595d9f0c438048d"
                ],
                "sequence": 4294967294
            }
        ],
        "vout": [
            {
                "value": 1.234e-05,
                "n": 0,
                "scriptPubKey": {
                    "asm": "0 78adcad59d2a1c52db45074694ab59747f5bf698",
                    "hex": "001478adcad59d2a1c52db45074694ab59747f5bf698",
                    "reqSigs": 1,
                    "type": "witness_v0_keyhash",
                    "addresses": [
                        "tb1q0zku44va9gw99k69qarff26ew3l4ha5cpdszvn"
                    ]
                }
            },
            {
                "value": 0.0,
                "n": 1,
                "scriptPubKey": {
                    "asm": "OP_RETURN 43494431017012201bb807bf56fba19f0f58e347e89635ea84865ea9f5f56ed93473a59a8dfca577",
                    "hex": "6a2843494431017012201bb807bf56fba19f0f58e347e89635ea84865ea9f5f56ed93473a59a8dfca577",
                    "type": "nulldata"
                }
            },
            {
                "value": 0.02999152,
                "n": 2,
                "scriptPubKey": {
                    "asm": "0 226d4154449e40a1182df710521886bd8c39a4f9",
                    "hex": "0014226d4154449e40a1182df710521886bd8c39a4f9",
                    "reqSigs": 1,
                    "type": "witness_v0_keyhash",
                    "addresses": [
                        "tb1qyfk5z4zyneq2zxpd7ug9yxyxhkxrnf8ecje88t"
                    ]
                }
            }
        ],
        "hex": "02000000000102db07187c814c4628067c63fb6a8c87ab0998e9a5bc1fbdeedc6748deca49f6810000000000ffffffff04d6bc9368cd6aff097b191c2bd3f3c0ed400f3c031af082df0a256fa069c18c0100000000feffffff03d20400000000000016001478adcad59d2a1c52db45074694ab59747f5bf69800000000000000002a6a2843494431017012201bb807bf56fba19f0f58e347e89635ea84865ea9f5f56ed93473a59a8dfca57770c32d0000000000160014226d4154449e40a1182df710521886bd8c39a4f9024730440220200be48085dd68f931f3f978281b5c953cafd1ebcbeb63c303dcf01a6d74a58c022002db8b90e9696924b33322701494e0580802501177d56a527d02eedf3db0eee6012103a8b2f7905475bdc6324f3df2bd515f90a84d45b4bf82c8aea50181b40da23d670247304402204f460f91b7ffbfcb57c7e760a00060205c3ed4f5144a9aa2c37ffc4e27a66d0702200eb4c986873aec370aea2fde739a6f443bb8339fba231508ee21cc783871b83101210392c295277830b86bbca66b1007b26ebb63cf88ee6e7841a5b595d9f0c438048d00000000",
        "blockhash": "000000000000000c98f75b90015693ff3735655945fa95c3ac48feb381121e6a",
        "confirmations": 2,
        "time": 1617582570,
        "blocktime": 1617582570
    }
}