{
    "type": "block-cert",
    "xid": "d005ddcb-2245-4372-ba18-bdd857c9dae0",
    "cid": "Qma13135MJVS9DXXYCQqUcEHm58ZtMixY7LCjoFgeG9akW",
    "version": 0,
    "prev": "",
    "chain": "TSR",
    "time": "2021-04-17 04:06:58+00:00",
    "owner": {
        "id": "urn:chain:TSR:91796:41:0",
        "tx": {
            "txid": "2e6cf2ec278158037484cff6ece06f6de48a53c5033faf887b414338b7ec4aae",
            "vout": 0
        },
        "addresses": [
            "tsrtest1q492xlxpgam3k3kl7n43yxx60ammz6v294ln3cd"
        ]
    },
    "tx": {
        "txid": "2e6cf2ec278158037484cff6ece06f6de48a53c5033faf887b414338b7ec4aae",
        "hash": "3ce1d57f2651bdd4805dd3b01de0e38e85142d9de92445e8c0b7e029ec8e3022",
        "version": 2,
        "size": 270,
        "vsize": 188,
        "locktime": 0,
        "vin": [
            {
                "txid": "e001e1fba80a2b3101f5cc0ffa8c544c04a2767d5aee860e4893659f813dd5f4",
                "vout": 1,
                "scriptSig": {
                    "asm": "",
                    "hex": ""
                },
                "txinwitness": [
                    "3045022100ac2710dedec0be04568de198375755cf71621827d6b187d57ec178a42f8b1cbf022047453dd863370ac0d1ff31879ae007c475cef71a70c700dc0cf357cbbaeae4be01",
                    "02914838ca79bc9185ae9fa06beb6d62d6646b5c4a44ed9d7c94f7f1b17203da31"
                ],
                "sequence": 4294967294
            }
        ],
        "vout": [
            {
                "value": 1.111e-05,
                "n": 0,
                "scriptPubKey": {
                    "asm": "0 a9546f9828eee368dbfe9d62431b4feef62d3145",
                    "hex": "0014a9546f9828eee368dbfe9d62431b4feef62d3145",
                    "reqSigs": 1,
                    "type": "witness_v0_keyhash",
                    "addresses": [
                        "tsrtest1q492xlxpgam3k3kl7n43yxx60ammz6v294ln3cd"
                    ]
                }
            },
            {
                "value": 0.0,
                "n": 1,
                "scriptPubKey": {
                    "asm": "OP_RETURN 01701220ad45d51c33b86794687546fd4ff822cbfd54fd6bbe82e09ca466055c31bd8d8f",
                    "hex": "6a2401701220ad45d51c33b86794687546fd4ff822cbfd54fd6bbe82e09ca466055c31bd8d8f",
                    "type": "nulldata"
                }
            },
            {
                "value": 9.99994843,
                "n": 2,
                "scriptPubKey": {
                    "asm": "0 d575d034d17c1074113fcaa7494ac8791d5cbd66",
                    "hex": "0014d575d034d17c1074113fcaa7494ac8791d5cbd66",
                    "reqSigs": 1,
                    "type": "witness_v0_keyhash",
                    "addresses": [
                        "tsrtest1q646aqdx30sg8gyfle2n5jjkg0yw4e0txe0jxc0"
                    ]
                }
            }
        ],
        "hex": "02000000000101f4d53d819f6593480e86ee5a7d76a2044c548cfa0fccf501312b0aa8fbe101e00100000000feffffff035704000000000000160014a9546f9828eee368dbfe9d62431b4feef62d31450000000000000000266a2401701220ad45d51c33b86794687546fd4ff822cbfd54fd6bbe82e09ca466055c31bd8d8fdbb59a3b00000000160014d575d034d17c1074113fcaa7494ac8791d5cbd6602483045022100ac2710dedec0be04568de198375755cf71621827d6b187d57ec178a42f8b1cbf022047453dd863370ac0d1ff31879ae007c475cef71a70c700dc0cf357cbbaeae4be012102914838ca79bc9185ae9fa06beb6d62d6646b5c4a44ed9d7c94f7f1b17203da3100000000",
        "blockhash": "000000006ecba79b1fb3f27af81141f138ef3da89a77eeb1ecff95d33c368274",
        "confirmations": 2,
        "time": 1618632418,
        "blocktime": 1618632418
    }
}