{
    "type": "block-cert",
    "xid": "c995eef6-59b6-44d3-88dc-651714c2e699",
    "cid": "QmTpkUxYfEXg1ZzFVYGr62P78HAGN9TSV1v6vMGp333vcv",
    "version": 0,
    "prev": "",
    "chain": "tBTC",
    "time": "2021-04-16 19:47:13+00:00",
    "owner": {
        "id": "urn:chain:tBTC:1971687:39:0",
        "tx": {
            "txid": "ea5e5efae51667630cb086cca4fa78ea331647a188fc6f645e633aa8c5ae2ea6",
            "vout": 0
        },
        "addresses": [
            "tb1q7f3nmqawugxrxgvc0ljm2x94nkpe3mzua05crp"
        ]
    },
    "tx": {
        "txid": "ea5e5efae51667630cb086cca4fa78ea331647a188fc6f645e633aa8c5ae2ea6",
        "hash": "d2e1298582fdcfce5c5494db56db5a5bb07220147a598a2d1c8ff63157ea4e14",
        "version": 2,
        "size": 417,
        "vsize": 255,
        "weight": 1020,
        "locktime": 0,
        "vin": [
            {
                "txid": "96dcc1e7c2125492fd68dd19b77c9fa3c1b72e6c843b1504aae89b34d6b05cd9",
                "vout": 0,
                "scriptSig": {
                    "asm": "",
                    "hex": ""
                },
                "txinwitness": [
                    "304402206c0642381ca7ddade4c2520139fcd2b51d99fbcd9e399101bcaf388c30b590840220047365ccb89e3fc9e93e39f65dbd0d5d16621ba28991d95044d832f483acec2c01",
                    "022a9f49b8b4d3c1ef99450b85b6b98150ed0aff7baba922b3ccbe517bf173b249"
                ],
                "sequence": 4294967294
            },
            {
                "txid": "8c17588141797dd1d3405161e62e07e625ff9bdf1081b726b911c0e6274e1610",
                "vout": 2,
                "scriptSig": {
                    "asm": "",
                    "hex": ""
                },
                "txinwitness": [
                    "3044022011672454216383d8831827fe3fc7540bb66f023bbfc7d18914e413c66e61d8bd02207dd02062ce4456f11756198d43502042e1c6097b5e096ada1ad9c2e9bda24c3401",
                    "03e7e561f34cb4e53ba527bd0f826df121c9426c5b1a4f60280ae5cbfb34077a62"
                ],
                "sequence": 4294967294
            }
        ],
        "vout": [
            {
                "value": 1.111e-05,
                "n": 0,
                "scriptPubKey": {
                    "asm": "0 f2633d83aee20c3321987fe5b518b59d8398ec5c",
                    "hex": "0014f2633d83aee20c3321987fe5b518b59d8398ec5c",
                    "reqSigs": 1,
                    "type": "witness_v0_keyhash",
                    "addresses": [
                        "tb1q7f3nmqawugxrxgvc0ljm2x94nkpe3mzua05crp"
                    ]
                }
            },
            {
                "value": 0.01000095,
                "n": 1,
                "scriptPubKey": {
                    "asm": "0 e80158a65a01c9d7640eb16ba89ddcc76723aded",
                    "hex": "0014e80158a65a01c9d7640eb16ba89ddcc76723aded",
                    "reqSigs": 1,
                    "type": "witness_v0_keyhash",
                    "addresses": [
                        "tb1qaqq43fj6q8yaweqwk94638wucanj8t0drswwmp"
                    ]
                }
            },
            {
                "value": 0.0,
                "n": 2,
                "scriptPubKey": {
                    "asm": "OP_RETURN 01701220517d39a5ca618453faa2ed5971b30ec47d5ec44e4afd37362b2bdaf8a4738f87",
                    "hex": "6a2401701220517d39a5ca618453faa2ed5971b30ec47d5ec44e4afd37362b2bdaf8a4738f87",
                    "type": "nulldata"
                }
            }
        ],
        "hex": "02000000000102d95cb0d6349be8aa04153b846c2eb7c1a39f7cb719dd68fd925412c2e7c1dc960000000000feffffff10164e27e6c011b926b78110df9bff25e6072ee6615140d3d17d79418158178c0200000000feffffff035704000000000000160014f2633d83aee20c3321987fe5b518b59d8398ec5c9f420f0000000000160014e80158a65a01c9d7640eb16ba89ddcc76723aded0000000000000000266a2401701220517d39a5ca618453faa2ed5971b30ec47d5ec44e4afd37362b2bdaf8a4738f870247304402206c0642381ca7ddade4c2520139fcd2b51d99fbcd9e399101bcaf388c30b590840220047365ccb89e3fc9e93e39f65dbd0d5d16621ba28991d95044d832f483acec2c0121022a9f49b8b4d3c1ef99450b85b6b98150ed0aff7baba922b3ccbe517bf173b24902473044022011672454216383d8831827fe3fc7540bb66f023bbfc7d18914e413c66e61d8bd02207dd02062ce4456f11756198d43502042e1c6097b5e096ada1ad9c2e9bda24c34012103e7e561f34cb4e53ba527bd0f826df121c9426c5b1a4f60280ae5cbfb34077a6200000000",
        "blockhash": "000000000000df11484c3af00f9c3c743cbd91120e5c599b8ab3233f22bc4a35",
        "confirmations": 5,
        "time": 1618602433,
        "blocktime": 1618602433
    }
}