{
    "type": "block-cert",
    "xid": "c995eef6-59b6-44d3-88dc-651714c2e699",
    "cid": "QmQp9hc41cFAApXnEHfdmMb2cDoxJMDdPsrs1x47sHufxB",
    "version": 1,
    "prev": "QmYSWBS8fhjxPVPMn21VkXWuREBgThNGoq1XZBcNxXgRZn",
    "chain": "tBTC",
    "time": "2021-04-16 19:47:13+00:00",
    "owner": {
        "id": "urn:chain:tBTC:1971687:40:1",
        "tx": {
            "txid": "7e1377c5ee28b438d0af224bd15724f97229f21a0548d2e30838c34c0c3f2745",
            "vout": 1
        },
        "addresses": [
            "tb1q2xftx3zknp3cskxkpjr7kf0fjqv4w92t28yfal"
        ]
    },
    "tx": {
        "txid": "7e1377c5ee28b438d0af224bd15724f97229f21a0548d2e30838c34c0c3f2745",
        "hash": "c025875bf9c94032847ae19c0e561f2574380fa150f503649be877847a3b5550",
        "version": 2,
        "size": 417,
        "vsize": 255,
        "weight": 1020,
        "locktime": 0,
        "vin": [
            {
                "txid": "ea5e5efae51667630cb086cca4fa78ea331647a188fc6f645e633aa8c5ae2ea6",
                "vout": 0,
                "scriptSig": {
                    "asm": "",
                    "hex": ""
                },
                "txinwitness": [
                    "30440220068081a340cd4e18f765c933840f3c3808e683c864bd2bee6a2e2c65a4b0029d022022691c722ba6c76a65d2f9af2c9517776c47b416383525c4dd3c7e4f868ebc1601",
                    "033a78116ed6fce6888c32e7871886e99a38847b25402197932a68aea573f10b2c"
                ],
                "sequence": 4294967295
            },
            {
                "txid": "d1e2f2b323223f369ad1dc05c9924fecd752cf3c8c7bceee9dcbba141b96b5c2",
                "vout": 1,
                "scriptSig": {
                    "asm": "",
                    "hex": ""
                },
                "txinwitness": [
                    "304402205ce347148921dd9e5da037b19b1479bdbd2b996fc72955651ddd02b214994b2d02205e2a0149f01ac1ad9eb6fe824eb99eddc19a84e27a559f7e322cce0fb057719601",
                    "03725b83e7181ced26b668751f15ebc35e0cceda7c68bb37d8fba926280eb14d55"
                ],
                "sequence": 4294967294
            }
        ],
        "vout": [
            {
                "value": 0.02998391,
                "n": 0,
                "scriptPubKey": {
                    "asm": "0 a371093269185438455bcab1220515d37704b6c2",
                    "hex": "0014a371093269185438455bcab1220515d37704b6c2",
                    "reqSigs": 1,
                    "type": "witness_v0_keyhash",
                    "addresses": [
                        "tb1q5dcsjvnfrp2rs32me2cjypg46dmsfdkz4lz2nw"
                    ]
                }
            },
            {
                "value": 1.111e-05,
                "n": 1,
                "scriptPubKey": {
                    "asm": "0 5192b3445698638858d60c87eb25e9901957154b",
                    "hex": "00145192b3445698638858d60c87eb25e9901957154b",
                    "reqSigs": 1,
                    "type": "witness_v0_keyhash",
                    "addresses": [
                        "tb1q2xftx3zknp3cskxkpjr7kf0fjqv4w92t28yfal"
                    ]
                }
            },
            {
                "value": 0.0,
                "n": 2,
                "scriptPubKey": {
                    "asm": "OP_RETURN 0170122024c2d619753a7e58ca68649183da5617c1fd289af74460a1a6f82feffe662638",
                    "hex": "6a240170122024c2d619753a7e58ca68649183da5617c1fd289af74460a1a6f82feffe662638",
                    "type": "nulldata"
                }
            }
        ],
        "hex": "02000000000102a62eaec5a83a635e646ffc88a1471633ea78faa4cc86b00c636716e5fa5e5eea0000000000ffffffffc2b5961b14bacb9deece7b8c3ccf52d7ec4f92c905dcd19a363f2223b3f2e2d10100000000feffffff0377c02d0000000000160014a371093269185438455bcab1220515d37704b6c257040000000000001600145192b3445698638858d60c87eb25e9901957154b0000000000000000266a240170122024c2d619753a7e58ca68649183da5617c1fd289af74460a1a6f82feffe662638024730440220068081a340cd4e18f765c933840f3c3808e683c864bd2bee6a2e2c65a4b0029d022022691c722ba6c76a65d2f9af2c9517776c47b416383525c4dd3c7e4f868ebc160121033a78116ed6fce6888c32e7871886e99a38847b25402197932a68aea573f10b2c0247304402205ce347148921dd9e5da037b19b1479bdbd2b996fc72955651ddd02b214994b2d02205e2a0149f01ac1ad9eb6fe824eb99eddc19a84e27a559f7e322cce0fb0577196012103725b83e7181ced26b668751f15ebc35e0cceda7c68bb37d8fba926280eb14d5500000000",
        "blockhash": "000000000000df11484c3af00f9c3c743cbd91120e5c599b8ab3233f22bc4a35",
        "confirmations": 5,
        "time": 1618602433,
        "blocktime": 1618602433
    }
}