{
    "type": "block-cert",
    "xid": "c995eef6-59b6-44d3-88dc-651714c2e699",
    "cid": "QmWpfBdb6NyunupW8FxsFNFWwFDiE6X7B5cWZj7g5D4DeU",
    "version": 3,
    "prev": "QmYxNpeovhg6QXkiz2rC4sJMCbbLGuxvQhM15bUbeb2TjZ",
    "chain": "tBTC",
    "time": "2021-04-16 19:47:13+00:00",
    "owner": {
        "id": "urn:chain:tBTC:1971687:46:0",
        "tx": {
            "txid": "142b5131ed34ac3f8b06f5200aee8b088aa8e31cf6c31b2c03850a1a3d35d13b",
            "vout": 0
        },
        "addresses": [
            "tb1qk6htp59up8grswq73rj2gquhpxadtf8pyudt36"
        ]
    },
    "tx": {
        "txid": "142b5131ed34ac3f8b06f5200aee8b088aa8e31cf6c31b2c03850a1a3d35d13b",
        "hash": "eeaa048515e4938ebd0235624c903737ff9544c980e4e5634bf8853a411ecf8a",
        "version": 2,
        "size": 417,
        "vsize": 255,
        "weight": 1020,
        "locktime": 0,
        "vin": [
            {
                "txid": "316424bd7036e4358c3575349a9d9e1c10ca8d618517ed22732b5a46afa44f02",
                "vout": 0,
                "scriptSig": {
                    "asm": "",
                    "hex": ""
                },
                "txinwitness": [
                    "304402204d9fecf0b6f1104358a44fbc08c5c9092fed7d369d6e0654b5ad02b0b2e0d1cb022027ffa6984f4c0330ea6a13fa70ce70f1a4173a076622c120d153e0437b5f38d601",
                    "03f1b9832c7184a8dbecc0d584834e260c69b1303487c39dc46f87cbe921339e2c"
                ],
                "sequence": 4294967295
            },
            {
                "txid": "b3d9ec2e13003afe66210993d77c4708f91b9fc7b8f42ebdaff604632365dcab",
                "vout": 2,
                "scriptSig": {
                    "asm": "",
                    "hex": ""
                },
                "txinwitness": [
                    "3044022020927af9e131c385775b36cfdaa1d48be72cdb04f245839c3b5d747162c86eee02206f12714432ca7d2bb802654e6e7ef3c62b3227c30aab206580cb5c68de1305de01",
                    "03bf27d53026d0654ddfa653569e6739ec78d9c5a07a93720708f97e494fcb9d07"
                ],
                "sequence": 4294967294
            }
        ],
        "vout": [
            {
                "value": 1.111e-05,
                "n": 0,
                "scriptPubKey": {
                    "asm": "0 b6aeb0d0bc09d038381e88e4a4039709bad5a4e1",
                    "hex": "0014b6aeb0d0bc09d038381e88e4a4039709bad5a4e1",
                    "reqSigs": 1,
                    "type": "witness_v0_keyhash",
                    "addresses": [
                        "tb1qk6htp59up8grswq73rj2gquhpxadtf8pyudt36"
                    ]
                }
            },
            {
                "value": 0.0,
                "n": 1,
                "scriptPubKey": {
                    "asm": "OP_RETURN 017012207e0a4b6ef41b70e10624f346eba0aff10ba3cac8cc077d785d1a5fd8b1dc10a5",
                    "hex": "6a24017012207e0a4b6ef41b70e10624f346eba0aff10ba3cac8cc077d785d1a5fd8b1dc10a5",
                    "type": "nulldata"
                }
            },
            {
                "value": 0.11121447,
                "n": 2,
                "scriptPubKey": {
                    "asm": "0 3b883edbab74fb1b826a8814f4129c39eecfaea6",
                    "hex": "00143b883edbab74fb1b826a8814f4129c39eecfaea6",
                    "reqSigs": 1,
                    "type": "witness_v0_keyhash",
                    "addresses": [
                        "tb1q8wyrakatwna3hqn23q20gy5u88hvlt4xktw2c9"
                    ]
                }
            }
        ],
        "hex": "02000000000102024fa4af465a2b7322ed1785618dca101c9e9d9a3475358c35e43670bd2464310000000000ffffffffabdc65236304f6afbd2ef4b8c79f1bf908477cd793092166fe3a00132eecd9b30200000000feffffff035704000000000000160014b6aeb0d0bc09d038381e88e4a4039709bad5a4e10000000000000000266a24017012207e0a4b6ef41b70e10624f346eba0aff10ba3cac8cc077d785d1a5fd8b1dc10a527b3a900000000001600143b883edbab74fb1b826a8814f4129c39eecfaea60247304402204d9fecf0b6f1104358a44fbc08c5c9092fed7d369d6e0654b5ad02b0b2e0d1cb022027ffa6984f4c0330ea6a13fa70ce70f1a4173a076622c120d153e0437b5f38d6012103f1b9832c7184a8dbecc0d584834e260c69b1303487c39dc46f87cbe921339e2c02473044022020927af9e131c385775b36cfdaa1d48be72cdb04f245839c3b5d747162c86eee02206f12714432ca7d2bb802654e6e7ef3c62b3227c30aab206580cb5c68de1305de012103bf27d53026d0654ddfa653569e6739ec78d9c5a07a93720708f97e494fcb9d0700000000",
        "blockhash": "000000000000df11484c3af00f9c3c743cbd91120e5c599b8ab3233f22bc4a35",
        "confirmations": 5,
        "time": 1618602433,
        "blocktime": 1618602433
    }
}