{
    "type": "block-cert",
    "xid": "c995eef6-59b6-44d3-88dc-651714c2e699",
    "cid": "QmPDzjVrqP4jdRYD1fU3SnicUZA6CHp2rHy1vPA5abwwut",
    "version": 2,
    "prev": "QmXubnZHgb8DZVtNWmc66dcYqzLK78bajBsnGKvMhFdyzA",
    "chain": "tBTC",
    "time": "2021-04-16 19:47:13+00:00",
    "owner": {
        "id": "urn:chain:tBTC:1971687:41:0",
        "tx": {
            "txid": "316424bd7036e4358c3575349a9d9e1c10ca8d618517ed22732b5a46afa44f02",
            "vout": 0
        },
        "addresses": [
            "tb1qfuuhuq0mdtm4g2uhyll2ud8hqu5vh5mffletx7"
        ]
    },
    "tx": {
        "txid": "316424bd7036e4358c3575349a9d9e1c10ca8d618517ed22732b5a46afa44f02",
        "hash": "ad97bcaaef811ff0aec6002abf52e4eefe8f5d1084a17ea9b9bb5f2d6cef87d9",
        "version": 2,
        "size": 417,
        "vsize": 255,
        "weight": 1020,
        "locktime": 0,
        "vin": [
            {
                "txid": "7e1377c5ee28b438d0af224bd15724f97229f21a0548d2e30838c34c0c3f2745",
                "vout": 1,
                "scriptSig": {
                    "asm": "",
                    "hex": ""
                },
                "txinwitness": [
                    "304402205d9de19257ccc9e23a1ce906ec89125fd1f4b483e6687dbdab8950c63510a75302204a9b2d5f38fa1743f8a91c908ab12e4b310df4eb39f2efdf276f71bf05889eee01",
                    "03efe50ceb538997456471739a174c2b36d4ebecddfba0cb61294e73e3c43f2f1d"
                ],
                "sequence": 4294967295
            },
            {
                "txid": "155bcfe462d8674f1bb1d43361bd8a64cd33decceb0055474818cf908f6cf9fe",
                "vout": 0,
                "scriptSig": {
                    "asm": "",
                    "hex": ""
                },
                "txinwitness": [
                    "304402201e50e565281680b3337f14e9dc707e0bd7c113c6933a1596a5711ddc23a08f9902207404a9f45c2625cbb884d61070d2823961efffaa101e0d8d03878ba71b0ca62801",
                    "03c34e710ea1d71991a4096a6dc1ff80d3c39ef1bf43b2c198aa5b5cd6ce31a2e4"
                ],
                "sequence": 4294967294
            }
        ],
        "vout": [
            {
                "value": 1.111e-05,
                "n": 0,
                "scriptPubKey": {
                    "asm": "0 4f397e01fb6af7542b9727feae34f70728cbd369",
                    "hex": "00144f397e01fb6af7542b9727feae34f70728cbd369",
                    "reqSigs": 1,
                    "type": "witness_v0_keyhash",
                    "addresses": [
                        "tb1qfuuhuq0mdtm4g2uhyll2ud8hqu5vh5mffletx7"
                    ]
                }
            },
            {
                "value": 0.03998903,
                "n": 1,
                "scriptPubKey": {
                    "asm": "0 b63fa894642f1323c25f6c83607673c981182d08",
                    "hex": "0014b63fa894642f1323c25f6c83607673c981182d08",
                    "reqSigs": 1,
                    "type": "witness_v0_keyhash",
                    "addresses": [
                        "tb1qkcl639ry9ufj8sjldjpkqannexq3stgguecqnj"
                    ]
                }
            },
            {
                "value": 0.0,
                "n": 2,
                "scriptPubKey": {
                    "asm": "OP_RETURN 017012200d2743310805c969866d8b7c426e6f1c53e03a5d30125a74783d47cb364d4b43",
                    "hex": "6a24017012200d2743310805c969866d8b7c426e6f1c53e03a5d30125a74783d47cb364d4b43",
                    "type": "nulldata"
                }
            }
        ],
        "hex": "0200000000010245273f0c4cc33808e3d248051af22972f92457d14b22afd038b428eec577137e0100000000fffffffffef96c8f90cf1848475500ebccde33cd648abd6133d4b11b4f67d862e4cf5b150000000000feffffff0357040000000000001600144f397e01fb6af7542b9727feae34f70728cbd369b7043d0000000000160014b63fa894642f1323c25f6c83607673c981182d080000000000000000266a24017012200d2743310805c969866d8b7c426e6f1c53e03a5d30125a74783d47cb364d4b430247304402205d9de19257ccc9e23a1ce906ec89125fd1f4b483e6687dbdab8950c63510a75302204a9b2d5f38fa1743f8a91c908ab12e4b310df4eb39f2efdf276f71bf05889eee012103efe50ceb538997456471739a174c2b36d4ebecddfba0cb61294e73e3c43f2f1d0247304402201e50e565281680b3337f14e9dc707e0bd7c113c6933a1596a5711ddc23a08f9902207404a9f45c2625cbb884d61070d2823961efffaa101e0d8d03878ba71b0ca628012103c34e710ea1d71991a4096a6dc1ff80d3c39ef1bf43b2c198aa5b5cd6ce31a2e400000000",
        "blockhash": "000000000000df11484c3af00f9c3c743cbd91120e5c599b8ab3233f22bc4a35",
        "confirmations": 5,
        "time": 1618602433,
        "blocktime": 1618602433
    }
}